:100000000C9434000C943E000C943E000C943E0082
:100010000C943E000C943E000C943E000C943E0068
:100020000C943E000C943E000C943E000C943E0058
:100030000C943E000C943E000C943E000C943E0048
:100040000C943E000C943E000C943E000C943E0038
:100050000C943E000C943E000C943E000C943E0028
:100060000C943E000C943E0011241FBECFEFD8E04C
:10007000DEBFCDBF0E9468000C948F000C9400007E
:10008000289A299A2A9A2B9A08950E94400087EA72
:1000900091E60197F1F700C00000289A29982A9A62
:1000A0002B9808950E94400087EA91E60197F1F7A6
:1000B00000C000002898299A2A982B9A08952C9815
:1000C0002D9A08952C9A2D9808952C9A2D9A08957A
:1000D0008FEF84B915B81AB88BB94E99FECF2C9A08
:1000E0002D9A18C0489902C00E945200499902C036
:1000F0000E9445004A9902C00E9440004B9902C0EC
:100100000E945F004C9902C00E9462004D9902C09B
:100110000E9465004E9BE6CF2C982D98DECFF89478
:02012000FFCF0F
:00000001FF
