:100000000C9434000C9451000C9451000C94510049
:100010000C9451000C9451000C9451000C9451001C
:100020000C9451000C9451000C9451000C9451000C
:100030000C9451000C9451000C9451000C945100FC
:100040000C943C010C9451000C9451000C94510000
:100050000C9451000C9451000C9451000C945100DC
:100060000C9451000C94510011241FBECFEFD8E026
:10007000DEBFCDBF11E0A0E0B1E0E6EEF6E002C0E9
:1000800005900D92AA31B107D9F711E0AAE1B1E0CC
:1000900001C01D92AC31B107E1F70E947F010C94C1
:1000A00071030C94000095B1282F22952F70907F3A
:1000B000922B95B992E0382F3F70662389F42D98E2
:1000C00025E02A95F1F700002C9AE5E0EA95F1F792
:1000D00000002C98F0EFFA95F1F78430B0F40FC0DF
:1000E0002D9A25E02A95F1F700002C9AE5E0EA9593
:1000F000F1F700002C98F0EFFA95F1F706C0EFE366
:10010000FFE13197F1F700C0000025B1207F232BDC
:1001100025B9915091F608952D982C988FEF99EF6D
:10012000A0E081509040A040E1F700C0000085B100
:10013000807F836085B995E09A95F1F700002C9A4D
:10014000A5E0AA95F1F700002C98B0EFBA95F1F769
:100150008FE19EE40197F1F700C0000095E09A95C9
:10016000F1F700002C9AA5E0AA95F1F700002C9871
:10017000B0EFBA95F1F78FEF93ECA9E08150904082
:10018000A040E1F700C0000095E09A95F1F700006B
:100190002C9AA5E0AA95F1F700002C98B0EFBA953B
:1001A000F1F785B1807F826085B985E08A95F1F7A6
:1001B00000002C9A95E09A95F1F700002C98A0EF9A
:1001C000AA95F1F788E260E00E94530088E060E0C1
:1001D0000E94530081E060E00E9453008CE060E0E8
:1001E0000E94530080E860E00E9453000895CF937E
:1001F000DF93EC018881882339F0219661E00E9429
:10020000530089918823D1F7DF91CF9108950F93FF
:100210001F93DF93CF9300D000D00F92CDB7DEB7FE
:10022000BC0180E090E00E94E8012AE037ED43E263
:1002300050E40E94A1020E9425020E94BC0170931A
:1002400017016093160180911601909117018E019C
:100250000F5F1F4FB8014AE050E00E942C03C80115
:100260000E94F7000F900F900F900F900F90CF917A
:10027000DF911F910F9108951F920F920FB60F9269
:1002800011242F933F934F935F936F937F938F939B
:100290009F93AF93BF93EF93FF938091160190913B
:1002A000170187BD80911A0190911B0101969093CF
:1002B0001B0180931A0123E0883E920779F4809114
:1002C0001801909119010E940701809118019091E5
:1002D00019010A969093190180931801FF91EF91EB
:1002E000BF91AF919F918F917F916F915F914F914E
:1002F0003F912F910F900FBE0F901F9018950F9365
:100300001F93DF93CF9300D000D000D0CDB7DEB7DE
:100310008DEF8AB98FEF8BB984B983E884BD83E010
:1003200085BD81E080936E000E948C00DE011196F5
:10033000E0E0F1E086E001900D928150E1F7CE011E
:1003400001960E94F700789400E010E04999FECFF2
:1003500083EC99E00197F1F700C00000C8010E940A
:100360000701065F1F4F499BFECF83EC99E0019781
:10037000F1F700C00000EACFACD088F09F5790F0B2
:10038000B92F9927B751A0F0D1F0660F771F881FBA
:10039000991F1AF0BA95C9F712C0B13081F0CAD0CE
:1003A000B1E00895C7C0672F782F8827B85F39F06C
:1003B000B93FCCF3869577956795B395D9F73EF419
:1003C00090958095709561957F4F8F4F9F4F0895C1
:1003D000E89409C097FB3EF49095809570956195DF
:1003E0007F4F8F4F9F4F9923A9F0F92F96E9BB2795
:1003F0009395F695879577956795B795F111F8CF11
:10040000FAF4BB0F11F460FF1BC06F5F7F4F8F4F7B
:100410009F4F16C0882311F096E911C0772321F071
:100420009EE8872F762F05C0662371F096E8862F09
:1004300070E060E02AF09A95660F771F881FDAF760
:10044000880F9695879597F908955DD080F09F372E
:1004500040F491110EF06FC060E070E080E89FEB17
:10046000089526F41B16611D711D811D01C01BC05E
:10047000882371F4772321F09850872B762F07C0BB
:10048000662311F499270DC09051862B70E060E02F
:100490002AF09A95660F771F881FDAF7880F9695CE
:1004A000879597F908959F3F31F0915020F48795F3
:1004B00077956795B795880F911D9695879597F9CC
:1004C000089557FD9058440F551F59F05F3F71F044
:1004D0004795880F97FB991F61F09F3F79F08795AB
:1004E0000895121613061406551FF2CF4695F1DF34
:1004F00008C0161617061806991FF1CF86957105C4
:10050000610508940895E5DFA0F0BEE7B91788F407
:10051000BB279F3860F41616B11D672F782F8827E8
:10052000985FF7CF869577956795B11D9395963926
:10053000C8F30895E894BB2766277727CB0197F97E
:1005400008950BD078C069D028F06ED018F09523AC
:1005500009F05AC05FC01124EECFB3DFA0F3959F1E
:10056000D1F3950F50E0551F629FF001729FBB279A
:10057000F00DB11D639FAA27F00DB11DAA1F649F46
:100580006627B00DA11D661F829F2227B00DA11DF9
:10059000621F739FB00DA11D621F839FA00D611D7F
:1005A000221F749F3327A00D611D231F849F600DA0
:1005B000211D822F762F6A2F11249F5750408AF0D9
:1005C000E1F088234AF0EE0FFF1FBB1F661F771F65
:1005D000881F91505040A9F79E3F510570F014C0FC
:1005E000AACF5F3FECF3983EDCF38695779567954D
:1005F000B795F795E7959F5FC1F7FE2B880F911D83
:100600009695879597F9089597F99F6780E870E028
:1006100060E008959FEF80EC089500240A94161678
:10062000170618060906089500240A9412161306E0
:10063000140605060895092E0394000C11F488236E
:1006400052F0BB0F40F4BF2B11F460FF04C06F5F8A
:100650007F4F8F4F9F4F0895FB019F01E8944230D9
:10066000C4F04532B4F44A3029F497FB1EF4909557
:1006700081959F4F642F77270E945D03805D8A33A9
:100680000CF0895D8193CB010097A1F716F45DE230
:1006900051931082C9010C944D03DC01FC01672FBA
:1006A00071917723E1F7329704C07C916D93708349
:1006B0006291AE17BF07C8F30895AA1BBB1B51E197
:1006C00007C0AA1FBB1FA617B70710F0A61BB70BC2
:1006D000881F991F5A95A9F780959095BC01CD0167
:0606E0000895F894FFCF1D
:1006E6006479677073202D2056656963756C6F2079
:0A06F600536F6C617200D2000A001D
:00000001FF
