:100000000C9434000C9451000C9451000C94510049
:100010000C9451000C9451000C9451000C9451001C
:100020000C9451000C94A0000C9451000C945100BD
:100030000C9451000C9451000C9451000C945100FC
:100040000C9451000C9451000C9453000C945100EA
:100050000C9451000C9451000C9451000C945100DC
:100060000C9451000C94510011241FBECFEFD8E026
:10007000DEBFCDBF11E0A0E0B1E0E0EDF8E002C0EE
:1000800005900D92AE30B107D9F721E0AEE0B1E0B6
:1000900001C01D92AE32B207E1F70E942F010C940D
:1000A00066040C9400001F920F920FB60F92112459
:1000B0008F939F93EF93FF9380E091E090932B01B8
:1000C00080932A019091C60080911A018130A1F09D
:1000D00018F0833051F026C0983719F483E08093EC
:1000E0001A018EE68093160122C086E080931701E4
:1000F00081E080931A011BC080910F01E82FF0E08E
:10010000E05FFE4F90838F5F80930F019091170106
:10011000891768F010921A0110920F0189E78093F5
:10012000160105C010921A0189E780931601FF910C
:10013000EF919F918F910F900FBE0F901F90189588
:100140001F920F920FB60F9211242F933F934F934C
:100150005F936F937F938F939F93AF93BF93EF932F
:10016000FF9380910E018F3108F180911C01803343
:1001700041F085E080931B0186E191E00E948B02B3
:1001800013C080911601893779F486E191E00E94CD
:100190002D0286E191E00E948F0186E191E00E94AC
:1001A0008B028EE68093160110920E0180910E0153
:1001B0008F5F80930E01FF91EF91BF91AF919F915F
:1001C0008F917F916F915F914F913F912F910F9000
:1001D0000FBE0F901F9018951092200110921F01D2
:1001E00010922201109221011092240110922301F9
:1001F0008EE6809318018093190192E490931D017B
:1002000090E590931E018093160181E08093250173
:1002100010921A0110921B0180E380931C01089533
:100220008091100180931E018091110190E09093C4
:10023000200180931F018091120190E09093220190
:1002400080932101809113018093260180911401F4
:10025000809327018091150180931D01089587E601
:1002600090E00E949E020E94EC000E940602789498
:10027000C6E1D1E01EE688818937E9F70E941001C6
:10028000CE010E942D02CE010E948F01CE010E945C
:100290008B028AE790E00E942D041883ECCF85360C
:1002A000910510F084E690E04EE551E0849F9001C6
:1002B000859F300D949F300D1124633031F488EB0D
:1002C00098E8AC01421B530B9A01C9010895853689
:1002D000910510F084E690E04EE551E0849F900196
:1002E000859F300D949F300D1124633031F488EBDD
:1002F00098E8AC01421B530B9A01C90108958AB1D9
:1003000080668AB984B5806A84BD84B5836084BD03
:1003100085B5856085BD87E187BD88BD0895CF938C
:10032000DF93FC016089D18970E080E090E00E9459
:100330003E032AE939E949E15EE30E94CA0320E06D
:1003400030E040E751E40E94AC020E941003C62F47
:100350006D2F70E080E090E00E943E032AE939E9C9
:1003600049E15EE30E94CA0320E030E040E751E447
:100370000E94AC020E941003C7BD68BDDF91CF91FF
:100380000895CF93DF93EC0185E38A95F1F70000A0
:100390002C9A2B986F8589859A850E944F0190939E
:1003A0008900809388006F858B859C850E946701FA
:1003B00090938B0080938A00DF91CF910895CF9323
:1003C000DF93EC0185E38A95F1F700002C9A2B9AD4
:1003D0006F8589859A850E944F019093890080934B
:1003E00088006F858B859C850E94670190938B00A8
:1003F00080938A00DF91CF91089585E38A95F1F784
:1004000000002C982A9A299A2B9A089584B18E611B
:1004100084B985B1886185B985B1897F85B98AB18B
:1004200088618AB95B985C9882EA8093800089E150
:100430008093810088EB98E89093870080938600F2
:10044000109289001092880010928B0010928A00FE
:100450000E947F010E94FD010895CF93DF93EC017C
:100460008F858230D1F08330B1F1813009F050C0F6
:100470008885863431F482E08F87CE010E94C101E5
:1004800047C08885843531F483E08F87CE010E9490
:10049000DF013EC080E588873BC08885803529F430
:1004A00081E08F870E94FD0133C08885863481F505
:1004B0006F8589859A850E944F019093890080936A
:1004C00088006F858B859C850E94670190938B00C7
:1004D00080938A001DC08885803529F481E08F874C
:1004E0000E94FD0115C08885843591F46F8589854A
:1004F0009A850E944F0190938900809388006F85B0
:100500008B859C850E94670190938B0080938A0065
:10051000DF91CF91089580E091E090932B0180933B
:100520002A018AE790E00E942D040895E0ECF0E0B3
:10053000908195FFFDCF8093C60008959093C500EC
:100540008093C4001092C00088E98093C10086E0C7
:100550008093C20008955058BB27AA270ED0E0C050
:10056000D1D030F0D6D020F031F49F3F11F41EF4FA
:10057000C6C00EF4E095E7FBBCC0E92FE2D080F3E3
:10058000BA17620773078407950718F071F49EF590
:10059000FAC00EF4E0950B2EBA2FA02D0B01B90175
:1005A00090010C01CA01A0011124FF27591B99F0E9
:1005B000593F50F4503E68F11A16F040A22F232FF5
:1005C000342F4427585FF3CF469537952795A79545
:1005D000F0405395C9F77EF41F16BA0B620B730BEC
:1005E000840BBAF09150A1F0FF0FBB1F661F771F5D
:1005F000881FC2F70EC0BA0F621F731F841F48F412
:10060000879577956795B795F7959E3F08F0B3CF97
:100610009395880F08F09927EE0F97958795089581
:1006200098D088F09F5790F0B92F9927B751A0F034
:10063000D1F0660F771F881F991F1AF0BA95C9F776
:1006400012C0B13081F09FD0B1E008959CC0672FF7
:10065000782F8827B85F39F0B93FCCF38695779526
:100660006795B395D9F73EF490958095709561950F
:100670007F4F8F4F9F4F0895E89409C097FB3EF43A
:1006800090958095709561957F4F8F4F9F4F9923DF
:10069000A9F0F92F96E9BB279395F695879577955D
:1006A0006795B795F111F8CFFAF4BB0F11F460FF1D
:1006B0001BC06F5F7F4F8F4F9F4F16C0882311F075
:1006C00096E911C0772321F09EE8872F762F05C089
:1006D000662371F096E8862F70E060E02AF09A9524
:1006E000660F771F881FDAF7880F9695879597F919
:1006F000089597F99F6780E870E060E008959FEFA4
:1007000080EC089500240A941616170618060906A8
:10071000089500240A941216130614060506089577
:10072000092E0394000C11F4882352F0BB0F40F4FF
:10073000BF2B11F460FF04C06F5F7F4F8F4F9F4F3F
:10074000089557FD9058440F551F59F05F3F71F0C1
:100750004795880F97FB991F61F09F3F79F0879528
:100760000895121613061406551FF2CF4695F1DFB1
:1007700008C0161617061806991FF1CF8695710541
:10078000610508940895E894BB2766277727CB0175
:1007900097F908950BD0C4CFB5DF28F0BADF18F071
:1007A000952309F0A6CFABCF1124EECFCADFA0F37B
:1007B000959FD1F3950F50E0551F629FF001729FF6
:1007C000BB27F00DB11D639FAA27F00DB11DAA1F15
:1007D000649F6627B00DA11D661F829F2227B00D62
:1007E000A11D621F739FB00DA11D621F839FA00DED
:1007F000611D221F749F3327A00D611D231F849F3D
:10080000600D211D822F762F6A2F11249F57504093
:100810008AF0E1F088234AF0EE0FFF1FBB1F661F2E
:10082000771F881F91505040A9F79E3F510570F0E7
:1008300060CFAACF5F3FECF3983EDCF386957795C7
:100840006795B795F795E7959F5FC1F7FE2B880FE2
:10085000911D9695879597F9089560912A01709159
:100860002B010E94340408950F931F93CF93DF93BD
:10087000182F092FEB018B8181FD03C08FEF9FEFB4
:1008800020C082FF10C04E815F812C813D814217C4
:1008900053077CF4E881F9819F012F5F3F4F398333
:1008A0002883108306C0E885F985812F0995892B57
:1008B00029F72E813F812F5F3F4F3F832E83812F6A
:1008C000902FDF91CF911F910F910895F894FFCF52
:0E08D000000000020000000096020000000080
:00000001FF
