:100000000C9434000C9446000C9446000C9446006A
:100010000C9446000C9446000C9446000C94460048
:100020000C9446000C9446000C9446000C94460038
:100030000C9446000C9446000C9446000C94460028
:100040000C9446000C9446000C9448000C94460016
:100050000C9446000C9446000C9446000C94460008
:100060000C9446000C94460011241FBECFEFD8E03C
:10007000DEBFCDBF11E0A0E0B1E001C01D92A6300F
:10008000B107E1F70E946C000C9437020C94000059
:100090001F920F920FB60F9211242F933F934F93FD
:1000A0005F936F937F938F939F93AF93BF93EF93E0
:1000B000FF930E948501FF91EF91BF91AF919F91B6
:1000C0008F917F916F915F914F913F912F910F9001
:1000D0000FBE0F901F90189587E690E00E94E301F5
:1000E0000E945E017894FFCF843649F08B3451F042
:1000F000823359F0893161F020E030E00BC028EB09
:1001000038E808C02AE836E605C02CE534E402C029
:100110002EE232E280910001833031F488EB98E8DE
:10012000AC01421B530B9A01822F932F0895843602
:1001300049F08B3451F0823359F0893161F020E07D
:1001400030E00BC028EB38E808C02AE836E605C0E6
:100150002CE534E402C02EE232E2809100018330CB
:1001600031F488EB98E8AC01421B530B9A01822FC3
:10017000932F089585E38A95F1F700002C9A2B9828
:10018000809102010E9474009093890080938800FE
:10019000809103010E94970090938B0080938A00C6
:1001A00082E080930001089585E38A95F1F70000CD
:1001B0002C9A2B9A809102010E94740090938900DE
:1001C00080938800809103010E94970090938B0098
:1001D00080938A0083E080930001089585E38A95E7
:1001E000F1F700002C9A84E60E9474009093890035
:1001F0008093880084E60E94970090938B00809300
:100200008A0081E08093000108958091000182308E
:10021000D9F08330B1F1813009F04FC080910101F4
:10022000863431F482E0809300010E94BA00089580
:10023000843531F483E0809300010E94D400089556
:1002400080E580930101089580910101803531F4AA
:1002500081E0809300010E94EE000895863469F5E4
:10026000809102010E94740090938900809388001D
:10027000809103010E94970090938B0080938A00E5
:10028000089580910101803531F481E0809300016F
:100290000E94EE000895843581F4809102010E944D
:1002A00074009093890080938800809103010E94DC
:1002B000970090938B0080938A00089584B18861A1
:1002C00084B985B1886185B984B1866084B985B106
:1002D000897F85B982EA8093800089E180938100DB
:1002E00088EB98E8909387008093860010928900AD
:1002F0001092880010928B0010928A0010920401D4
:10030000109205010E94EE0008951F931091C600FF
:1003100080910501882301F1809104018F5F809312
:100320000401823039F0833041F08130A9F4109318
:10033000010112C0109302010FC0612F109303013D
:1003400010920501109204014091010150910201A7
:1003500070E080E00E940501133519F481E080937C
:1003600005011F9108951F93CF93DF939B01A42F45
:10037000B0E011971A161B066CF450E010E3F90177
:10038000E50FF11D10835F5F652F70E06A177B0733
:10039000B4F301C050E0F901E50FF11D11824150A5
:1003A000CAE0D0E0F901E40FF11DBE010E94230272
:1003B000805D80834150862F972F009799F7DF91BA
:1003C000CF911F9108959093C5008093C40010921F
:1003D000C00088E98093C10086E08093C200089540
:1003E000E0ECF0E0908195FFFDCF8093C60008958A
:1003F000E0ECF0E080818823ECF78091C60008955E
:10040000CF93DF93EC018881882331F021960E94FD
:10041000F00189918823D9F7DF91CF910895CF9387
:10042000DF93EC01FE012491222351F0FC01849121
:100430000E94F0012196CE01FE0124912223B1F702
:10044000DF91CF910895AA1BBB1B51E107C0AA1FE2
:10045000BB1FA617B70710F0A61BB70B881F991F65
:100460005A95A9F780959095BC01CD010895F8940F
:02047000FFCFBC
:00000001FF
