:100000000C9434000C9446000C9446000C9446006A
:100010000C9446000C9446000C9446000C94460048
:100020000C9446000C949E000C9446000C944600E0
:100030000C9446000C9446000C9446000C94460028
:100040000C9446000C9446000C9468000C944600F6
:100050000C9446000C9446000C9446000C94460008
:100060000C9446000C94460011241FBECFEFD8E03C
:10007000DEBFCDBF21E0A0E0B1E001C01D92AE30F7
:10008000B207E1F70E94FD000C9410050C940000EB
:1000900080E480937C0087E880937A0010927B0054
:1000A0008FE380937E000895ECE7F0E09081877005
:1000B000987F982B9083EAE7F0E0808180648083CA
:1000C000808186FDFDCF8091780090917900089520
:1000D0001F920F920FB60F9211242F933F934F93BD
:1000E0005F936F937F938F939F93AF93BF93EF93A0
:1000F000FF9381E091E00E949A0280910A01893782
:1001000061F481E091E00E943C0281E091E00E9474
:100110005E0181E091E00E943F03FF91EF91BF916A
:10012000AF919F918F917F916F915F914F913F918F
:100130002F910F900FBE0F901F9018951F920F9246
:100140000FB60F9211242F933F934F935F936F93AA
:100150007F938F939F93AF93BF93CF93DF93EF934F
:10016000FF9380910901893719F41092000112C0A0
:1001700080910001853670F0C1ECD0E088818F77E6
:10018000888381E091E00E94FC0110920001888147
:1001900080688883809100018F5F80930001FF91C8
:1001A000EF91DF91CF91BF91AF919F918F917F910F
:1001B0006F915F914F913F912F910F900FBE0F90D4
:1001C0001F901895109204011092030110920601DD
:1001D0001092050110920801109207018EE680939B
:1001E000090180930A0182E48093010180E58093F4
:1001F000020181E080930B01089587E690E00E9460
:1002000065030E9448000E94E2000E94D50181E03F
:100210008093700087E08093B1007894FFCF85369B
:10022000910510F084E690E04EE551E0849F900146
:10023000859F300D949F300D1124633031F488EB8D
:1002400098E8AC01421B530B9A01C9010895853609
:10025000910510F084E690E04EE551E0849F900116
:10026000859F300D949F300D1124633031F488EB5D
:1002700098E8AC01421B530B9A01C90108958AB159
:1002800080668AB984B5806A84BD84B5836084BD84
:1002900085B5856085BD87E187BD88BD0895FC0172
:1002A0008081803521F45B9882E480830895808189
:1002B000823419F45B9A80E580830895CF93DF93AD
:1002C000FC016385D48570E080E090E00E940D041D
:1002D0002AE939E949E15EE30E94990420E030E02F
:1002E00040E751E40E947B030E94DF03C62F6D2F7D
:1002F00070E080E090E00E940D042AE939E949E1CC
:100300005EE30E94990420E030E040E751E40E945F
:100310007B030E94DF03C7BD68BDDF91CF910895C5
:10032000CF93DF93EC0185E38A95F1F700002C9AD7
:100330002B986A858A819B810E940F019093890086
:10034000809388006A858C819D810E94270190930B
:100350008B0080938A00DF91CF910895CF93DF9334
:10036000EC0185E38A95F1F700002C9A2B9A6A85B7
:100370008A819B810E940F0190938900809388005D
:100380006A858C819D810E94270190938B008093C8
:100390008A00DF91CF91089585E38A95F1F70000F7
:1003A0002C982A9A299A2B9A089584B18E6184B93F
:1003B00085B1886185B985B1897F85B98AB1886140
:1003C0008AB95B985C9882EA8093800089E1809387
:1003D000810088EB98E890938700809386001092C4
:1003E00089001092880010928B0010928A000E945F
:1003F0003F010E94CC010895CF93DF93EC018A85E1
:1004000082508230B0F58A819B8140972CF08A819E
:100410009B8183979B838A838C819D8140972CF05D
:100420008C819D8183979D838C838A819B810F978B
:1004300074F48C819D810F9754F481E08A878EE655
:10044000888789871F821E820E94CC0112C06A851C
:100450008A819B810E940F0190938900809388007C
:100460006A858C819D810E94270190938B008093E7
:100470008A00DF91CF910895CF93DF93EC018A85B5
:100480008230D1F08330B1F1813009F050C08981E0
:10049000863431F482E08A87CE010E94900147C001
:1004A0008981843531F483E08A87CE010E94AE01D0
:1004B0003EC080E589833BC08981803529F481E095
:1004C0008A870E94CC0133C08981863481F56A8590
:1004D0008A819B810E940F019093890080938800FC
:1004E0006A858C819D810E94270190938B00809367
:1004F0008A001DC08981803529F481E08A870E94A5
:10050000CC0115C08981843591F46A858A819B81EB
:100510000E940F0190938900809388006A858C81E6
:100520009D810E94270190938B0080938A00DF9128
:10053000CF910895CF93DF93EC012091C6008EE612
:100540008987233541F489E788878E819F810196C9
:100550009F838E834CC08885893709F048C08E817F
:100560009F81019739F429838E819F8101969F8312
:100570008E833DC08E819F81029751F4822F90E03F
:100580009B838A838E819F8101969F838E832FC058
:100590008E819F81039751F4822F90E09D838C83FD
:1005A0008E819F8101969F838E8321C08E819F8142
:1005B000049739F42B878E819F8101969F838E83C8
:1005C00016C08E819F81059739F42C878E819F817B
:1005D00001969F838E830BC0213319F4CE010E94B4
:1005E0004F018EE6888789E789871F821E82898569
:1005F000DF91CF910895CF93DF9300D01F92CDB7B5
:10060000DEB781E00E9454009A83898329813A8170
:100610004EE1429FC001439F900D112460E872E0BB
:100620000E94FC046B838B810F900F900F90DF91E1
:10063000CF910895CF93DF9300D01F92CDB7DEB74F
:1006400080E00E9454009A83898329813A814EE197
:10065000429FC001439F900D112460E872E00E9408
:10066000FC046B838B818D3010F05C9A01C05C9828
:100670008B810F900F900F90DF91CF9108950F9382
:100680001F93CF93DF9300D01F92CDB7DEB78C01BD
:100690008AE789830E94FB028A830E941A038B8364
:1006A00089810E947203F80180810E94720382E3B3
:1006B0000E94720381E20E9472030F900F900F90CC
:1006C000DF91CF911F910F9108959093C500809372
:1006D000C4001092C00088E98093C10086E0809336
:1006E000C2000895E0ECF0E0908195FFFDCF80938B
:1006F000C60008955058BB27AA270ED0E0C0D1D01D
:1007000030F0D6D020F031F49F3F11F41EF4C6C073
:100710000EF4E095E7FBBCC0E92FE2D080F3BA17F6
:10072000620773078407950718F071F49EF5FAC005
:100730000EF4E0950B2EBA2FA02D0B01B9019001FC
:100740000C01CA01A0011124FF27591B99F0593F40
:1007500050F4503E68F11A16F040A22F232F342F88
:100760004427585FF3CF469537952795A795F040D6
:100770005395C9F77EF41F16BA0B620B730B840BEB
:10078000BAF09150A1F0FF0FBB1F661F771F881FA3
:10079000C2F70EC0BA0F621F731F841F48F48795FB
:1007A00077956795B795F7959E3F08F0B3CF9395EA
:1007B000880F08F09927EE0F97958795089598D0A0
:1007C00088F09F5790F0B92F9927B751A0F0D1F03A
:1007D000660F771F881F991F1AF0BA95C9F712C0C4
:1007E000B13081F09FD0B1E008959CC0672F782F81
:1007F0008827B85F39F0B93FCCF386957795679530
:10080000B395D9F73EF490958095709561957F4F9B
:100810008F4F9F4F0895E89409C097FB3EF4909541
:100820008095709561957F4F8F4F9F4F9923A9F0C9
:10083000F92F96E9BB279395F69587957795679558
:10084000B795F111F8CFFAF4BB0F11F460FF1BC09C
:100850006F5F7F4F8F4F9F4F16C0882311F096E92F
:1008600011C0772321F09EE8872F762F05C06623DD
:1008700071F096E8862F70E060E02AF09A95660F96
:10088000771F881FDAF7880F9695879597F908954F
:1008900097F99F6780E870E060E008959FEF80EC33
:1008A000089500240A9416161706180609060895D6
:1008B00000240A9412161306140605060895092E3C
:1008C0000394000C11F4882352F0BB0F40F4BF2BAB
:1008D00011F460FF04C06F5F7F4F8F4F9F4F0895EB
:1008E00057FD9058440F551F59F05F3F71F04795E1
:1008F000880F97FB991F61F09F3F79F087950895C6
:10090000121613061406551FF2CF4695F1DF08C0E4
:10091000161617061806991FF1CF86957105610501
:1009200008940895E894BB2766277727CB0197F9A9
:1009300008950BD0C4CFB5DF28F0BADF18F09523A7
:1009400009F0A6CFABCF1124EECFCADFA0F3959F5D
:10095000D1F3950F50E0551F629FF001729FBB27A6
:10096000F00DB11D639FAA27F00DB11DAA1F649F52
:100970006627B00DA11D661F829F2227B00DA11D05
:10098000621F739FB00DA11D621F839FA00D611D8B
:10099000221F749F3327A00D611D231F849F600DAC
:1009A000211D822F762F6A2F11249F5750408AF0E5
:1009B000E1F088234AF0EE0FFF1FBB1F661F771F71
:1009C000881F91505040A9F79E3F510570F060CFAD
:1009D000AACF5F3FECF3983EDCF386957795679559
:1009E000B795F795E7959F5FC1F7FE2B880F911D8F
:1009F0009695879597F90895AA1BBB1B51E107C0EF
:100A0000AA1FBB1FA617B70710F0A61BB70B881F9E
:100A1000991F5A95A9F780959095BC01CD0108952D
:040A2000F894FFCF78
:00000001FF
