S0150000436F6E74726F6C65436172726F2E73726563D2
S11300000C9434000C9446000C9446000C94460066
S11300100C9446000C9446000C9446000C94460044
S11300200C9446000C9446000C9446000C94460034
S11300300C9446000C9446000C9446000C94460024
S11300400C949A000C9446000C9468000C9446009E
S11300500C9446000C9446000C9446000C94460004
S11300600C9446000C94460011241FBECFEFD8E038
S1130070DEBFCDBF21E0A0E0B1E001C01D92AC30F5
S1130080B207E1F70E94F9000C9481030C9400007C
S113009080E480937C0087E880937A0010927B0050
S11300A08FE380937E000895ECE7F0E09081877001
S11300B0987F982B9083EAE7F0E0808180648083C6
S11300C0808186FDFDCF809178009091790008951C
S11300D01F920F920FB60F9211242F933F934F93B9
S11300E05F936F937F938F939F93AF93BF93EF939C
S11300F0FF9381E091E00E94A40280910A01893774
S113010041F481E091E00E940C0281E091E00E94C0
S11301103203FF91EF91BF91AF919F918F917F91A6
S11301206F915F914F913F912F910F900FBE0F9060
S11301301F9018951F920F920FB60F9211242F93B0
S11301403F934F935F936F937F938F939F93AF935B
S1130150BF93CF93DF93EF93FF9380910901893786
S113016019F41092000112C080910001813570F0E1
S1130170C1ECD0E088818F77888381E091E00E9490
S1130180B901109200018881806888838091000100
S11301908F5F80930001FF91EF91DF91CF91BF9129
S11301A0AF919F918F917F916F915F914F913F910B
S11301B02F910F900FBE0F901F901895109204016D
S11301C01092030110920601109205011092080189
S11301D0109207018EE68093090180930A0182E45C
S11301E08093010180E58093020181E080930B01FB
S11301F0089587E690E00E9458030E9448000E94F8
S1130200DE000E94920181E080936E0085E085BD4E
S11302107894FFCFFC018081803521F45B9882E4DF
S1130220808308958081823419F45B9A80E5808309
S11302300895FC0145E34A95F1F700002C9A2B98A8
S11302406285428153812EE531E0429FC001439F84
S1130250900D529F900D1124633031F428EB38E84F
S1130260A901481B590BCA01909389008093880007
S11302706285448155812EE531E0429FC001439F50
S1130280900D529F900D1124633031F428EB38E81F
S1130290A901481B590BCA0190938B0080938A00D3
S11302A00895FC0145E34A95F1F700002C9A2B9A36
S11302B06285428153812EE531E0429FC001439F14
S11302C0900D529F900D1124633031F428EB38E8DF
S11302D0A901481B590BCA01909389008093880097
S11302E06285448155812EE531E0429FC001439FE0
S11302F0900D529F900D1124633031F428EB38E8AF
S1130300A901481B590BCA0190938B0080938A0062
S1130310089585E38A95F1F700002C982A9A299A82
S11303202B9A089584B18E6184B985B1886185B9A9
S113033085B1897F85B98AB188618AB95B985C98EF
S113034082EA8093800089E18093810088EB98E8B9
S11303509093870080938600109289001092880001
S113036010928B0010928A0085E085BD0E9489015D
S11303700895FC0182858250823008F04CC082814D
S1130380938140972CF0828193810F97938382838A
S11303908481958140972CF0848195810F97958372
S11303A084836285428153812EE531E0429FC001FE
S11303B0439F900D529F900D1124633031F428EB2C
S11303C038E8A901481B590BCA019093890080930E
S11303D088006285448155812EE531E0429FC00149
S11303E0439F900D529F900D1124633031F428EBFC
S11303F038E8A901481B590BCA0190938B008093DC
S11304008A00828193810F9734F4848195810F97B8
S113041014F40E9489010895FC0182858230D9F088
S1130420833009F455C0813009F08DC08181863450
S113043031F482E08287CF010E94190108958181FD
S1130440843531F483E08287CF010E9451010895FD
S113045080E5818308958181803529F481E0828754
S11304600E94890108958181863409F06CC06285F7
S1130470428153812EE531E0429FC001439F900D9C
S1130480529F900D1124633031F428EB38E8A90110
S1130490481B590BCA019093890080938800628598
S11304A0448155812EE531E0429FC001439F900D68
S11304B0529F900D1124633031F428EB38E8A901E0
S11304C0481B590BCA0190938B0080938A000895AE
S11304D08181803529F481E082870E948901089511
S11304E08181843581F56285428153812EE531E035
S11304F0429FC001439F900D529F900D1124633081
S113050031F428EB38E8A901481B590BCA01909330
S11305108900809388006285448155812EE531E00D
S1130520429FC001439F900D529F900D1124633050
S113053031F428EB38E8A901481B590BCA01909300
S11305408B0080938A000895CF93DF93EC01209170
S1130550C6008EE68987233541F489E788878E8132
S11305609F8101969F838E8335C08885893791F555
S11305708E819F81019739F429838E819F81019611
S11305809F838E8327C08E819F81029751F4822F8F
S113059090E09B838A838E819F8101969F838E83C3
S11305A019C08E819F81039751F4822F90E09D831F
S11305B08C838E819F8101969F838E830BC0213310
S11305C019F4CE010E940A018EE6888789E789879B
S11305D01F821E828985DF91CF910895CF93DF9387
S11305E000D01F92CDB7DEB781E00E9454009A83F9
S11305F0898329813A814EE1429FC001439F900D36
S1130600112460E872E00E946D036B838B810F906C
S11306100F900F90DF91CF910895CF93DF9300D087
S11306201F92CDB7DEB780E00E9454009A8389837D
S113063029813A814EE1429FC001439F900D1124CC
S113064060E872E00E946D036B838B818D3010F043
S11306505C9A01C05C988B810F900F900F90DF9192
S1130660CF9108950F931F93CF93DF9300D01F92E0
S1130670CDB7DEB78C018AE789830E94EE028A83B4
S11306800E940D038B8389810E946503F801808198
S11306900E94650382E30E94650381E20E94650370
S11306A00F900F900F90DF91CF911F910F910895AC
S11306B09093C5008093C4001092C00088E9809391
S11306C0C10086E08093C2000895E0ECF0E09081E0
S11306D095FFFDCF8093C6000895AA1BBB1B51E173
S11306E007C0AA1FBB1FA617B70710F0A61BB70B9E
S11306F0881F991F5A95A9F780959095BC01CD0143
S10907000895F894FFCFF8
S9030000FC
