S0150000436F6E74726F6C65436172726F2E73726563D2
S11300000C9434000C9446000C9446000C94460066
S11300100C9446000C9446000C9446000C94460044
S11300200C9446000C9446000C9446000C94460034
S11300300C9446000C9446000C9446000C94460024
S11300400C949A000C9446000C9468000C9446009E
S11300500C9446000C9446000C9446000C94460004
S11300600C9446000C94460011241FBECFEFD8E038
S1130070DEBFCDBF21E0A0E0B1E001C01D92AC30F5
S1130080B207E1F70E94F9000C9430030C940000CD
S113009080E480937C0087E880937A0010927B0050
S11300A08FE380937E000895ECE7F0E09081877001
S11300B0987F982B9083EAE7F0E0808180648083C6
S11300C0808186FDFDCF809178009091790008951C
S11300D01F920F920FB60F9211242F933F934F93B9
S11300E05F936F937F938F939F93AF93BF93EF939C
S11300F0FF9381E091E00E94530280910A018937C5
S113010041F481E091E00E94F50181E091E00E94D8
S1130110E102FF91EF91BF91AF919F918F917F91F8
S11301206F915F914F913F912F910F900FBE0F9060
S11301301F9018951F920F920FB60F9211242F93B0
S11301403F934F935F936F937F938F939F93AF935B
S1130150BF93CF93DF93EF93FF9380910901893786
S113016019F41092000112C080910001853670F0DC
S1130170C1ECD0E088818F77888381E091E00E9490
S1130180B501109200018881806888838091000104
S11301908F5F80930001FF91EF91DF91CF91BF9129
S11301A0AF919F918F917F916F915F914F913F910B
S11301B02F910F900FBE0F901F901895109204016D
S11301C01092030110920601109205011092080189
S11301D0109207018EE68093090180930A0182E45C
S11301E08093010180E58093020181E080930B01FB
S11301F0089587E690E00E9407030E9448000E9449
S1130200DE000E948E0181E080936E0085E085BD52
S11302107894FFCF8536910510F084E690E04EE5A2
S113022051E0849F9001859F300D949F300D1124DF
S1130230633031F488EB98E8AC01421B530B9A010C
S1130240C90108958536910510F084E690E04EE5E5
S113025051E0849F9001859F300D949F300D1124AF
S1130260633031F488EB98E8AC01421B530B9A01DC
S1130270C9010895FC018081803521F45B9882E4F2
S1130280808308958081823419F45B9A80E58083A9
S11302900895CF93DF93EC0185E38A95F1F700008D
S11302A02C9A2B986A858A819B810E940A019093DB
S11302B08900809388006A858C819D810E94220137
S11302C090938B0080938A00DF91CF910895CF9310
S11302D0DF93EC0185E38A95F1F700002C9A2B9AC1
S11302E06A858A819B810E940A0190938900809388
S11302F088006A858C819D810E94220190938B00E5
S113030080938A00DF91CF91089585E38A95F1F770
S113031000002C982A9A299A2B9A089584B18E6108
S113032084B985B1886185B985B1897F85B98AB178
S113033088618AB95B985C9882EA8093800089E13D
S11303408093810088EB98E89093870080938600DF
S1130350109289001092880010928B0010928A00EB
S113036085E085BD0E9485010895CF93DF93EC015C
S11303708A8582508230B0F58A819B8140972CF027
S11303808A819B8183979B838A838C819D814097FB
S11303902CF08C819D8183979D838C838A819B81A2
S11303A00F9774F48C819D810F9754F481E08A87B0
S11303B08EE6888789871F821E820E94850112C06B
S11303C06A858A819B810E940A01909389008093A7
S11303D088006A858C819D810E94220190938B0004
S11303E080938A00DF91CF910895CF93DF93EC013E
S11303F08A858230D1F08330B1F1813009F050C068
S11304008981863431F482E08A87CE010E944901D1
S113041047C08981843531F483E08A87CE010E9404
S113042067013EC080E589833BC08981803529F41A
S113043081E08A870E94850133C08981863481F5F1
S11304406A858A819B810E940A0190938900809326
S113045088006A858C819D810E94220190938B0083
S113046080938A001DC08981803529F481E08A87C0
S11304700E94850115C08981843591F46A858A8139
S11304809B810E940A0190938900809388006A8569
S11304908C819D810E94220190938B0080938A001D
S11304A0DF91CF910895CF93DF93EC012091C600A3
S11304B08EE68987233541F489E788878E819F8179
S11304C001969F838E8335C08885893791F58E8107
S11304D09F81019739F429838E819F8101969F839F
S11304E08E8327C08E819F81029751F4822F90E0E2
S11304F09B838A838E819F8101969F838E8319C0FB
S11305008E819F81039751F4822F90E09D838C8389
S11305108E819F8101969F838E830BC0213319F4B2
S1130520CE010E943A018EE6888789E789871F8277
S11305301E828985DF91CF910895CF93DF9300D0F8
S11305401F92CDB7DEB781E00E9454009A8389835D
S113055029813A814EE1429FC001439F900D1124AD
S113056060E872E00E941C036B838B810F900F90F4
S11305700F90DF91CF910895CF93DF9300D01F9216
S1130580CDB7DEB780E00E9454009A838983298125
S11305903A814EE1429FC001439F900D112460E8CF
S11305A072E00E941C036B838B818D3010F05C9A87
S11305B001C05C988B810F900F900F90DF91CF91C9
S11305C008950F931F93CF93DF9300D01F92CDB75D
S11305D0DEB78C018AE789830E949D028A830E9488
S11305E0BC028B8389810E941403F80180810E94DC
S11305F0140382E30E94140381E20E9414030F9007
S11306000F900F90DF91CF911F910F9108959093C8
S1130610C5008093C4001092C00088E98093C10093
S113062086E08093C2000895E0ECF0E0908195FFAD
S1130630FDCF8093C6000895AA1BBB1B51E107C0E0
S1130640AA1FBB1FA617B70710F0A61BB70B881F5E
S1130650991F5A95A9F780959095BC01CD010895ED
S1070660F894FFCF38
S9030000FC
