:100000000C9434000C9446000C9446000C9446006A
:100010000C9446000C9446000C9446000C94460048
:100020000C9446000C9446000C9446000C94460038
:100030000C9446000C9446000C9446000C94460028
:100040000C9446000C9446000C9486000C944600D8
:100050000C9446000C9446000C9446000C94460008
:100060000C9446000C94460011241FBECFEFD8E03C
:10007000DEBFCDBF11E0A0E0B1E001C01D92A53010
:10008000B107E1F70E949A000C9420040C94000040
:1000900080E480937C008FEA80937A0084E08093F0
:1000A0007B008FE380937E000895ECE7F0E0908181
:1000B0008770987F982B9083EAE7F0E080818064D6
:1000C0008083808186FDFDCF20917800309179007A
:1000D000822F932F0895E1ECF0E080818F77808369
:1000E00080910201909103010E94F001E0910201D0
:1000F000F09103018185893719F4CF010E945E02D6
:10010000E1ECF0E080818068808308951F920F9277
:100110000FB60F9211248F939F9381E090E09093FC
:100120000101809300019F918F910F900FBE0F905E
:100130001F90189580910201909103010E94BB01CC
:1001400087E690E00E94AF020E9448007894809178
:10015000000190910101009739F00E946B0010920C
:10016000010110920001F3CFFFCF8436910561F0B9
:100170008B34910561F08233910561F089319105ED
:1001800061F020E030E00BC028EB38E808C02AE836
:1001900036E605C02CE534E402C02EE232E280915E
:1001A0000401833031F488EB98E8AC01421B530B17
:1001B0009A01822F932F08958436910561F08B3434
:1001C000910561F08233910561F08931910561F00B
:1001D00020E030E00BC028EB38E808C02AE836E61B
:1001E00005C02CE534E402C02EE232E28091040125
:1001F000833031F488EB98E8AC01421B530B9A0131
:10020000822F932F0895FC018081803521F45B9823
:1002100082E4808308958081823419F45B9A80E5BA
:1002200080830895CF93DF93EC0185E38A95F1F7FE
:1002300000002C9A2B988A819B810E94B500909394
:100240008900809388008C819D810E94DC009093BE
:100250008B0080938A0082E080930401DF91CF912C
:100260000895CF93DF93EC0185E38A95F1F70000C1
:100270002C9A2B9A8A819B810E94B50090938900C9
:10028000809388008C819D810E94DC0090938B007C
:1002900080938A0083E080930401DF91CF910895D9
:1002A00085E38A95F1F700002C98299A2A9A2B9ACF
:1002B00081E0809304010895CF93DF93EC01809156
:1002C00004018230E1F08330B9F1813009F050C08F
:1002D0008981863439F482E080930401CE010E9442
:1002E000120146C08981843539F483E0809304018A
:1002F000CE010E9431013CC080E5898339C08981EB
:10030000803531F481E0809304010E94500130C0B7
:100310008981863469F58A819B810E94B50090931A
:100320008900809388008C819D810E94DC009093DD
:100330008B0080938A001CC08981803531F481E074
:10034000809304010E94500113C08981843581F497
:100350008A819B810E94B5009093890080938800D8
:100360008C819D810E94DC0090938B0080938A0099
:10037000DF91CF910895FC0184B18E6184B985B17C
:10038000886185B985B1897F85B984B1886184B96F
:100390005B985C9882EA8093800089E18093810079
:1003A00088EB98E8909387008093860010928900EC
:1003B0001092880010928B0010928A001382128291
:1003C00015821482178216828EE68087818782E4E6
:1003D000808380E5818385E085BD0E94500108957A
:1003E000CF93DF93EC012091C6001986233519F4D1
:1003F00089E788873BC088858937C1F58E819F81D1
:1004000001969F838E838E819F818230910581F03A
:100410008330910524F48130910541F507C0833084
:10042000910559F08430910509F50CC029831EC04F
:10043000822F90E09B838A8319C0822F90E09D8356
:100440008C8314C0213359F480E588838BE50E94A6
:10045000BC0287E70E94BC028DE50E94BC028EE6CA
:10046000888789E78987CE010E945C018985DF91B1
:10047000CF91089581E00E945500BC0180E090E09A
:100480000E941B032CEC3EEE49E45DE30E948103D5
:100490000E94EF02862F089580E00E945500BC0163
:1004A00080E090E00E941B032CEC3EEE49E45DE30B
:1004B0000E9481030E94EF02862F0895DF93CF935D
:1004C00000D00F92CDB7DEB7FC01808189830E94F6
:1004D0003A028A830E944C028B838AE70E94BC0204
:1004E00089810E94BC028A810E94BC028B810E9489
:1004F000BC020F900F900F90CF91DF9108951F9342
:10050000CF93DF939B01A42FB0E011971A161B061F
:100510006CF450E010E3F901E50FF11D10835F5F0B
:10052000652F70E06A177B07B4F301C050E0F90152
:10053000E50FF11D11824150CAE0D0E0F901E40F4E
:10054000F11DBE010E940C04805D80834150862F06
:10055000972F009799F7DF91CF911F91089590936E
:10056000C5008093C4001092C00088E98093C10048
:1005700086E08093C2000895E0ECF0E0908195FF62
:10058000FDCF8093C6000895E0ECF0E080818823E1
:10059000ECF78091C6000895CF93DF93EC0188813A
:1005A000882331F021960E94BC0289918823D9F7D3
:1005B000DF91CF910895CF93DF93EC01FE01249159
:1005C000222351F0FC0184910E94BC022196CE01AD
:1005D000FE0124912223B1F7DF91CF91089570D0CD
:1005E00088F09F5790F0B92F9927B751A0F0D1F01C
:1005F000660F771F881F991F1AF0BA95C9F712C0A6
:10060000B13081F077D0B1E0089574C0672F782FB2
:100610008827B85F39F0B93FCCF386957795679511
:10062000B395D9F73EF490958095709561957F4F7D
:100630008F4F9F4F0895E89409C097FB3EF4909523
:100640008095709561957F4F8F4F9F4F9923A9F0AB
:10065000F92F96E9BB279395F6958795779567953A
:10066000B795F111F8CFFAF4BB0F11F460FF1BC07E
:100670006F5F7F4F8F4F9F4F16C0882311F096E911
:1006800011C0772321F09EE8872F762F05C06623BF
:1006900071F096E8862F70E060E02AF09A95660F78
:1006A000771F881FDAF7880F9695879597F9089531
:1006B00057FD9058440F551F59F05F3F71F0479513
:1006C000880F97FB991F61F09F3F79F087950895F8
:1006D000121613061406551FF2CF4695F1DF08C017
:1006E000161617061806991FF1CF86957105610534
:1006F00008940895E894BB2766277727CB0197F9DC
:1007000008950BD078C069D028F06ED018F09523EA
:1007100009F05AC05FC01124EECFCADFA0F3959F45
:10072000D1F3950F50E0551F629FF001729FBB27D8
:10073000F00DB11D639FAA27F00DB11DAA1F649F84
:100740006627B00DA11D661F829F2227B00DA11D37
:10075000621F739FB00DA11D621F839FA00D611DBD
:10076000221F749F3327A00D611D231F849F600DDE
:10077000211D822F762F6A2F11249F5750408AF017
:10078000E1F088234AF0EE0FFF1FBB1F661F771FA3
:10079000881F91505040A9F79E3F510570F014C03A
:1007A000AACF5F3FECF3983EDCF38695779567958B
:1007B000B795F795E7959F5FC1F7FE2B880F911DC1
:1007C0009695879597F9089597F99F6780E870E067
:1007D00060E008959FEF80EC089500240A941616B7
:1007E000170618060906089500240A94121613061F
:1007F000140605060895092E0394000C11F48823AD
:1008000052F0BB0F40F4BF2B11F460FF04C06F5FC8
:100810007F4F8F4F9F4F0895AA1BBB1B51E107C00D
:10082000AA1FBB1FA617B70710F0A61BB70B881F80
:10083000991F5A95A9F780959095BC01CD0108950F
:04084000F894FFCF5A
:00000001FF
