:100000000C9434000C943E000C943E000C943E0082
:100010000C943E000C943E000C943E000C943E0068
:100020000C943E000C943E000C943E000C943E0058
:100030000C943E000C943E000C943E000C943E0048
:100040000C943E000C943E000C943E000C943E0038
:100050000C943E000C943E000C943E000C943E0028
:100060000C943E000C943E0011241FBECFEFD8E04C
:10007000DEBFCDBF0E9411010C9429010C94000039
:100080009BB1282F22952F70907F922B9BB992E0E5
:10009000382F3F70662389F45D9822E02A95F1F7A6
:1000A00000C05C9AE2E0EA95F1F700C05C98F8E7DE
:1000B000FA95F1F78430B0F40FC05D9A22E02A95EA
:1000C000F1F700C05C9AE2E0EA95F1F700C05C98B5
:1000D000F8E7FA95F1F706C0EFE9FFE03197F1F79D
:1000E00000C000002BB1207F232B2BB9915091F63B
:1000F00008958AB18F638AB95D985C988FE39CE913
:100100000197F1F700C000008BB1807F83608BB94D
:1001100092E09A95F1F700C05C9AA2E0AA95F1F7F7
:1001200000C05C98B8E7BA95F1F78FE097E20197C5
:10013000F1F700C0000092E09A95F1F700C05C9AD8
:10014000A2E0AA95F1F700C05C98B8E7BA95F1F77C
:100150008FEF91EEA4E081509040A040E1F700C005
:10016000000092E09A95F1F700C05C9AA2E0AA958F
:10017000F1F700C05C98B8E7BA95F1F78BB1807FD2
:1001800082608BB982E08A95F1F700C05C9A92E0B8
:100190009A95F1F700C05C98A8E7AA95F1F788E274
:1001A00060E00E94400088E060E00E94400081E042
:1001B00060E00E9440008CE060E00E94400080E827
:1001C00060E00E9440000895CF93DF93EC018881A6
:1001D000882339F0219661E00E94400089918823AC
:1001E000D1F7DF91CF91089584B18C6284B92A9AB6
:1001F00080E58CBD9CB58CB58C7F816089238CBDDE
:1002000008958EBD0DB407FEFDCF089580E184B939
:100210002A9880E48CBD08950DB407FEFDCF8EB5FD
:1002200008951092C1002098289A0E9479000E9497
:10023000F4001899FECF2A9887E893E10197F1F727
:1002400000C0000081E40E9401012A9A189BFECFA1
:06025000F0CFF894FFCF8F
:00000001FF
