:100000000C9434000C9446000C9446000C9446006A
:100010000C9446000C9446000C9446000C94460048
:100020000C9446000C9446000C9446000C94460038
:100030000C9446000C9446000C9446000C94460028
:100040000C9446000C9407010C9446000C94460056
:100050000C9446000C9446000C9446000C94460008
:100060000C9446000C94460011241FBECFEFD8E03C
:10007000DEBFCDBF11E0A0E0B1E001C01D92A23013
:10008000B107E1F70E9419010C9431010C940000B2
:100090009BB1282F22952F70907F922B9BB992E0D5
:1000A000382F3F70662389F45D9822E02A95F1F796
:1000B00000C05C9AE2E0EA95F1F700C05C98F8E7CE
:1000C000FA95F1F78430B0F40FC05D9A22E02A95DA
:1000D000F1F700C05C9AE2E0EA95F1F700C05C98A5
:1000E000F8E7FA95F1F706C0EFE9FFE03197F1F78D
:1000F00000C000002BB1207F232B2BB9915091F62B
:1001000008958AB18F638AB95D985C988FE39CE902
:100110000197F1F700C000008BB1807F83608BB93D
:1001200092E09A95F1F700C05C9AA2E0AA95F1F7E7
:1001300000C05C98B8E7BA95F1F78FE097E20197B5
:10014000F1F700C0000092E09A95F1F700C05C9AC8
:10015000A2E0AA95F1F700C05C98B8E7BA95F1F76C
:100160008FEF91EEA4E081509040A040E1F700C0F5
:10017000000092E09A95F1F700C05C9AA2E0AA957F
:10018000F1F700C05C98B8E7BA95F1F78BB1807FC2
:1001900082608BB982E08A95F1F700C05C9A92E0A8
:1001A0009A95F1F700C05C98A8E7AA95F1F788E264
:1001B00060E00E94480088E060E00E94480081E022
:1001C00060E00E9448008CE060E00E94480080E807
:1001D00060E00E9448000895CF93DF93EC0188818E
:1001E000882339F0219661E00E9448008991882394
:1001F000D1F7DF91CF91089580E184B92A9880E406
:100200008CBD08950DB407FEFDCF8EB508951F92E5
:100210000F920FB60F9211248F938EB58093010128
:1002200081E0809300018F910F900FBE0F901F907F
:1002300018951092C1000E94FC000E9481000E944B
:10024000FC008CB580688CBD789480910001882377
:10025000E1F38091010161E00E94480010920001E9
:06026000F4CFF894FFCF7B
:00000001FF
