:100000000C9434000C943E000C943E000C943E0082
:100010000C943E000C943E000C943E000C943E0068
:100020000C943E000C943E000C943E000C943E0058
:100030000C943E000C943E000C943E000C943E0048
:100040000C943E000C943E000C943E000C943E0038
:100050000C943E000C943E000C943E000C943E0028
:100060000C943E000C943E0011241FBECFEFD8E04C
:10007000DEBFCDBF0E9462000C94EB000C94000028
:10008000419A429A449A459A87EA91E60197F1F794
:1000900000C0000008950E944000419A4298449A8E
:1000A000459808950E9440004198429A4498459A84
:1000B00008954098439A0895409A43980895409A25
:1000C000439A08958FEF87B918B81AB88BB9109270
:1000D000C1004E99FECF83EC99E00197F1F700C083
:1000E0000000409A439A6CC0489910C083EC99E094
:1000F0000197F1F700C000000E945200489BFECF1C
:1001000083EC99E00197F1F700C00000499910C015
:1001100083EC99E00197F1F700C000000E944B00CA
:10012000499BFECF83EC99E00197F1F700C00000F6
:100130004A9910C083EC99E00197F1F700C00000E4
:100140000E9440004A9BFECF83EC99E00197F1F7B3
:1001500000C000004B9910C083EC99E00197F1F7C3
:1001600000C000000E9459004B9BFECF83EC99E039
:100170000197F1F700C000004C9910C083EC99E0A2
:100180000197F1F700C000000E945C004C9BFECF7D
:1001900083EC99E00197F1F700C000004D9910C081
:1001A00083EC99E00197F1F700C000000E945F0026
:1001B0004D9BFECF83EC99E00197F1F700C0000062
:1001C0004E9B92CF83EC99E00197F1F700C00000BD
:0A01D000409843987ECFF894FFCFCB
:00000001FF
