:100000000C9434000C9451000C9451000C94510049
:100010000C9451000C9451000C9451000C9451001C
:100020000C9451000C9451000C9451000C9451000C
:100030000C9451000C9451000C9451000C945100FC
:100040000C9451000C9451000C9451000C945100EC
:100050000C9451000C9476000C9451000C945100B7
:100060000C9451000C94510011241FBECFEFD8E026
:10007000DEBFCDBF11E0A0E0B1E0E2EEF5E002C0EE
:1000800005900D92AE30B107D9F711E0AEE0B1E0C6
:1000900001C01D92A431B107E1F70E94C6000C9483
:1000A000EF020C94000080E480937C008FEA809340
:1000B0007A0084E080937B008FE380937E00089534
:1000C000ECE7F0E090818770987F982B9083EAE7C7
:1000D000F0E0808180648083808186FDFDCF209167
:1000E000780030917900822F932F08951F920F92FC
:1000F0000FB60F9211240F931F932F933F934F939B
:100100005F936F937F938F939F93AF93BF93CF939F
:10011000DF93EF93FF9380910E01803489F40E9466
:10012000FA01EC010E942E028C010E94A2010E94A1
:10013000C900482FCE01B8010E94F80010920E01AC
:1001400080910E018F5F80930E0185B385BBFF9177
:10015000EF91DF91CF91BF91AF919F918F917F915F
:100160006F915F914F913F912F911F910F910F9040
:100170000FBE0F901F90189587E690E00E949B029B
:1001800085E085BD0E945300789408950E94BC00CC
:10019000FFCF90910001923091F09330B9F09130FF
:1001A000E1F4863429F482E08093000186E4089526
:1001B0008235C1F483E08093000182E5089586349E
:1001C00099F081E08093000180E50895823571F017
:1001D00081E08093000180E5089581E08093000133
:1001E00080E5089580E5089586E4089582E5089500
:1001F000CF92DF92EF92FF920F931F93DF93CF93F3
:10020000CDB7DEB72A970FB6F894DEBF0FBECDBFCD
:100210007C016B01042F8BE50E94A80209830FE08B
:1002200011E0C701B8010E9448010F2EFDE4EF2E36
:10023000F02DEA82809110018B83809111018C83D3
:10024000809112018D83C601B8010E944801EE829F
:10025000809110018F838091110188878091120114
:1002600089871A86CE0101960E94B8028DE50E9408
:10027000A8022A960FB6F894DEBF0FBECDBFCF916D
:10028000DF911F910F91FF90EF90DF90CF90089535
:10029000CF93DF93EB0120E3288329832A832B83E9
:1002A0001C8243E02AE030E0FE01E40FF11DB901B9
:1002B0000E94DB02805D80834150862F972F00973C
:1002C00099F7DF91CF91089580E00E946000089532
:1002D00081E00E94600008950E9464012091030162
:1002E000309104018217930778F00E94640121E0A5
:1002F00030E040910501509106014817590710F46C
:1003000020E030E0C901089580E090E008950E9467
:1003100068012091090130910A018217930778F052
:100320000E94680121E030E040910B0150910C01E6
:100330004817590710F420E030E0C901089580E023
:1003400090E00895CF93DF930E946401EC010E9436
:10035000680120910B0130910C0128173907B8F082
:100360002091090130910A018217930790F0809142
:100370000501909106018C179D0768F0809103019B
:1003800090910401C817D90740F485E407C086E4BA
:1003900005C082E503C084E401C080E5DF91CF9110
:1003A00008950E94680123E085389207A8F40E940E
:1003B000680123E08830920790F40E94680122E0EF
:1003C0008B38920778F40E94680122E08B30920704
:1003D00060F029E130E00BC024E630E008C02BE4F7
:1003E00030E005C022E330E002C020E030E0822FA0
:1003F000932F08950F931F93CF93DF930E9464016F
:100400008C010E946801EC010E94D10180910901D8
:1004100090910A01C817D90790F00E946C018823B7
:1004200021F00E948701882369F080910501909155
:1004300006018017910748F424E630E008C024E65E
:1004400030E005C024E630E002C020E030E0822F3A
:10045000932FDF91CF911F910F910895CF92DF924B
:10046000EF92FF920F931F93DF93CF9300D000D0B2
:100470000F92CDB7DEB70E9464016C010E94680143
:100480007C010E94D1018BE590E00E94A802C60188
:100490008E010F5F1F4FB8010E944801C8010E94E2
:1004A000B8028CE290E00E94A802C701B8010E9445
:1004B0004801C8010E94B8028DE590E00E94A802A0
:1004C0008091090190910A01E816F906C8F00E948E
:1004D0006C01882321F00E9487018823A1F080917C
:1004E0000501909106018C159D0580F08091030116
:1004F00090910401C816D90660F020E030E00BC0EE
:1005000024E630E008C024E630E005C020E030E01A
:1005100002C024E630E0822F932F0F900F900F90AF
:100520000F900F90CF91DF911F910F91FF90EF905F
:10053000DF90CF9008959093C5008093C4001092EF
:10054000C00088E98093C10086E08093C2000895CE
:10055000E0ECF0E0908195FFFDCF8093C600089518
:10056000E0ECF0E080818823ECF78091C6000895EC
:10057000CF93DF93EC018881882331F021960E948C
:10058000A80289918823D9F7DF91CF910895CF935D
:10059000DF93EC01FE012491222351F0FC018491B0
:1005A0000E94A8022196CE01FE0124912223B1F7D8
:1005B000DF91CF910895AA1BBB1B51E107C0AA1F71
:1005C000BB1FA617B70710F0A61BB70B881F991FF4
:1005D0005A95A9F780959095BC01CD010895F8949E
:0205E000FFCF4B
:0E05E200010A02F6011E02F201DE010602000D
:00000001FF
