:100000000C9434000C9474000C9451000C94510026
:100010000C9451000C9451000C9451000C9451001C
:100020000C9451000C9451000C9451000C9451000C
:100030000C9451000C9451000C9451000C945100FC
:100040000C9451000C9451000C9415010C94510027
:100050000C9451000C9486000C9451000C945100A7
:100060000C9451000C94510011241FBECFEFD8E026
:10007000DEBFCDBF11E0A0E0B1E0EAE4FBE002C0EA
:1000800005900D92A831B107D9F721E0A8E1B1E0C0
:1000900001C01D92A033B207E1F70E9453010C94F6
:1000A000A3050C94000080E480937C008FEA809389
:1000B0007A0084E080937B008FE380937E00089534
:1000C000ECE7F0E090818770987F982B9083EAE7C7
:1000D000F0E0808180648083808186FDFDCF809107
:1000E00078009091790008951F920F920FB60F92A9
:1000F00011248F9389E780932E01E89881E08CBBCF
:100100008F910F900FBE0F901F9018951F920F9216
:100110000FB60F9211240F931F932F933F934F937A
:100120005F936F937F938F939F93AF93BF93CF937F
:10013000DF93EF93FF9380911A018930E0F1909162
:100140002D019937C1F5E1ECF0E080818F77808354
:10015000ECE7F0E08081877F80838DE191E00E9471
:1001600077028DE191E00E94C70280911801909181
:10017000190105973CF081E08CBB8DBB10921901F1
:100180001092180180911801909119010196909395
:100190001901809318018EE680932D0110921A01A7
:1001A000ECE7F0E0808188608083E1ECF0E0808122
:1001B000806880831EC08031E0F0C1ECD0E088818F
:1001C0008F7788830CE710E0F8018081877F808338
:1001D0008DE191E00E9477028DE191E00E94C702DB
:1001E00010921A01F801808188608083888180687C
:1001F000888380911A018F5F80931A0185B385BB34
:10020000FF91EF91DF91CF91BF91AF919F918F912E
:100210007F916F915F914F913F912F911F910F911E
:100220000F900FBE0F901F9018951F920F920FB650
:100230000F9211242F933F934F935F936F937F936C
:100240008F939F93AF93BF93EF93FF938DE191E0D3
:100250000E94370280912101893711F480932D018A
:10026000FF91EF91BF91AF919F918F917F916F918E
:100270005F914F913F912F910F900FBE0F901F9064
:10028000189510921F0110921E018EE68093200196
:1002900099E79093210190932D0192E490931D0191
:1002A00080932E0108950E94410187E690E00E940C
:1002B0007F0585E085BD52985A9A81E08093690058
:1002C0000E949F010E9453007894FFCF95B1282F80
:1002D00022952F70907F922B95B992E0382F3F7026
:1002E000611111C02C9825E02A95F1F700002D9A94
:1002F000E5E0EA95F1F700002D98F0EFFA95F1F7B7
:100300008430B0F40FC02C9A25E02A95F1F7000054
:100310002D9AE5E0EA95F1F700002D98F0EFFA95B7
:10032000F1F706C0EFE3FFE13197F1F700C00000FD
:1003300025B1207F232B25B9915091F608958FE0A8
:1003400084B984B1806384B925E02A95F1F700006F
:100350002C982D988FEF99EF20E08150904020400D
:10036000E1F700C0000085B1807F836085B985E03A
:100370008A95F1F700002D9A95E09A95F1F7000023
:100380002D9820EF2A95F1F78FE19EE40197F1F780
:1003900000C0000095E09A95F1F700002D9A25E045
:1003A0002A95F1F700002D9880EF8A95F1F78FE1FB
:1003B00093E00197F1F700C0000095E09A95F1F7FE
:1003C00000002D9A25E02A95F1F700002D9880EF86
:1003D0008A95F1F785B1807F826085B995E09A951D
:1003E000F1F700002D9A25E02A95F1F700002D98ED
:1003F00080EF8A95F1F760E088E20E94660160E094
:1004000088E00E94660160E081E00E94660160E091
:100410008CE00E94660160E080E80E946601089519
:10042000CF93DF93EC018881882339F0219661E036
:100430000E94660189918111FACFDF91CF910895D1
:1004400061E00E94660108958130910521F4CB019D
:1004500080589F4F08C0029721F4CB0180549F4FD2
:1004600002C080E090E060E00E9466010895FC0117
:100470002091C6008EE684832A3741F489E783837E
:10048000818192810196928381832FC083818937F4
:1004900061F581819281019739F420838181928174
:1004A00001969283818321C081819281029751F4C8
:1004B000822F90E096838583818192810196928339
:1004C000818313C081819281039779F4822F90E018
:1004D00090878783818192810196928381838EE6C2
:1004E000838389E7848312821182848108950F9324
:1004F0001F93CF93DF9300D000D000D0CDB7DEB7ED
:100500008C0183E589830E94FF038D838D81F8012F
:1005100086878D8190E00E9478048A838A81F80121
:1005200085870E9449058B838B8190E0F801928733
:1005300081870E9413058C838C8190E0F801948759
:10054000838789810E948C058A810E948C058B811A
:100550000E948C058C810E948C05F8018189893765
:1005600019F481E38E8302C080E38E838EE6F80166
:10057000818B8E810E948C0526960FB6F894DEBF83
:100580000FBECDBFDF91CF911F910F9108950F93B3
:100590001F93CF93DF9300D01F92CDB7DEB78C01AE
:1005A00063E070E081E090E00E942402F801818520
:1005B000928543E0BE016F5F7F4F0E947003CE01C2
:1005C00001960E94100263E070E082E090E00E94D9
:1005D0002402F8018385948543E0BE016F5F7F4F5D
:1005E0000E947003CE0101960E94100280910001CA
:1005F000813108F468C060E070E081E090E00E9422
:1006000024028AE091E00E94100267E070E081E03D
:1006100090E00E9424028EE091E00E941002F80116
:100620008581968142E0BE016F5F7F4F0E9470031B
:10063000CE0101960E94100286E50E9420026DE024
:1006400070E081E090E00E9424028BE50E9420028D
:10065000F80185850E9420028DE50E94200260E05D
:1006600070E082E090E00E94240281E191E00E942B
:10067000100267E070E082E090E00E94240285E1D1
:1006800091E00E941002F8018781908542E0BE014E
:100690006F5F7F4F0E947003CE0101960E9410028F
:1006A00086E50E9420026DE070E082E090E00E940A
:1006B000240286E40E9420028AE30E942002F801BC
:1006C00080810E942002809100018F5F8093000151
:1006D0000F900F900F90DF91CF911F910F91089580
:1006E0001F93CF93DF93FC01EB01242F30E02150C7
:1006F0003109121613066CF450E060E3DE01A50F19
:10070000B11D6C935F5F852F90E082179307B4F360
:1007100001C050E0DE01A50FB11D11961C924150A1
:100720001FEF140F9E01240F311DA9019F01ADEC95
:10073000BCEC0E949405969587959695879596951D
:1007400087959C01220F331F880F991F880F991FCF
:10075000880F991F820F931FDF01A81BB90BCD01D2
:10076000805DDA018C939F01ADECBCEC0E94940596
:10077000FC01F695E795F695E795F695E7953097A0
:1007800011F0412FCDCFDF91CF911F91089580E0DF
:100790000E946000089581E00E94600008950E9418
:1007A000C70320910801309109018217930768F06F
:1007B0000E94C70341E020910601309107012817EC
:1007C000390708F440E0842F089580E008950E94DE
:1007D000CB0320910401309105018217930768F043
:1007E0000E94CB0341E020910201309103012817C0
:1007F000390708F440E0842F089580E008950F93AE
:100800001F93CF93DF930E94C7038C010E94CB03F9
:10081000EC0180910201909103018C179D0720F457
:100820000E94CF0381114EC0809106019091070173
:100830008017910760F480910201909103018C1759
:100840009D0708F441C00E94E70381113FC08091D9
:100850000801909109010817190758F480910201C5
:10086000909103018C179D0798F10E94E703811175
:1008700031C08091040190910501C817D90720F477
:100880000E94CF03811128C0809106019091070139
:100890008017910738F48091040190910501C817E1
:1008A000D907E0F080910801909109010817190714
:1008B000B8F48091040190910501C817D90790F010
:1008C00080E511C086E40FC084E40DC084E40BC051
:1008D00085E409C085E407C084E505C082E503C05E
:1008E00080E501C08CE4DF91CF911F910F910895B5
:1008F0000E94FF03909101019230C1F0953011F1F7
:10090000913059F59CEB980F933028F482E0809356
:10091000010186E40895843521F0823511F08C348C
:10092000F1F485E08093010184E50895843529F090
:100930008C3419F08D7F8035A1F481E08093010122
:1009400080E508959CEB980F933010F0803559F4B2
:1009500081E08093010180E5089580E5089580E5B8
:10096000089586E4089584E5089590911C019F30D0
:1009700050F0981718F485E0890F0895891720F42E
:100980008BEF890F08958FE0089590911B019F30A0
:1009900050F0981718F485E0890F0895891720F40E
:1009A0008BEF890F08958FE008959C012C52314000
:1009B000293542E0340780F42A5531092238314084
:1009C00068F4805E91408B3A910550F40E94E703F1
:1009D000882341F080E0089584E608958BE408952B
:1009E00082E3089589E108959C012C523140293514
:1009F00042E0340780F42A5531092238314068F446
:100A0000805E91408B3A910550F40E94CF03882379
:100A100041F080E0089584E608958BE4089582E330
:100A2000089589E108950F931F93CF93DF930E9458
:100A3000C703EC010E94CB038C010E94FF038634A4
:100A400069F028F48434A1F0853471F01AC082353D
:100A500079F0843519F08C34A1F406C0C8010E94E5
:100A6000D5040E94C5040EC084E60E94C5040AC0D5
:100A7000CE010E94F40494E6981B892F0E94C504BD
:100A800001C080E080931B01DF91CF911F910F91F6
:100A900008950F931F93CF93DF930E94C703EC0138
:100AA0000E94CB038C010E94FF03863469F028F476
:100AB000843481F0853491F01AC0823559F0843540
:100AC00019F08C34A1F40AC0C8010E94D5040E9418
:100AD000B5040EC084E60E94B5040AC0CE010E948F
:100AE000F40494E6981B892F0E94B50401C080E0AD
:100AF00080931C01DF91CF911F910F9108959093E6
:100B0000C5008093C4001092C00088E98093C100A2
:100B100086E08093C2000895E0ECF0E0908195FFBC
:100B2000FDCF8093C6000895A29FB001B39FC0017E
:100B3000A39F700D811D1124911DB29F700D811D09
:0A0B40001124911D0895F894FFCFD1
:100B4A0014010602DE011E02F6014D313A00423A54
:080B5A00004D323A00503A0050
:00000001FF
