S0160000436F6E74726F6C6552656D6F746F2E7372656352
S11300000C9448000C9488000C9465000C946500D2
S11300100C9465000C9465000C9465000C946500C8
S11300200C9465000C9465000C9465000C946500B8
S11300300C9465000C9465000C9465000C946500A8
S11300400C9465000C9465000C942D010C946500CF
S11300500C9465000C949A000C9465000C94650053
S11300600C9465000C946500072C7AA5BA6CC590B5
S1130070DA3B9365FC8BBC53F810FD3C5692834DE0
S1130080BD879D3AB63DCBC9BF5BBE73DA0FC93F8E
S113009011241FBECFEFD8E0DEBFCDBF11E0A0E03A
S11300A0B1E0E8EDF4E102C005900D92A232B1078F
S11300B0D9F721E0A2E2B1E001C01D92AC33B2074E
S11300C0E1F70E946B010C946A0A0C94000080E42E
S11300D080937C008FEA80937A0084E080937B0095
S11300E08FE380937E000895ECE7F0E090818770C1
S11300F0987F982B9083EAE7F0E080818064808386
S1130100808186FDFDCF80917800909179000895DB
S11301101F920F920FB60F9211248F9389E7809349
S11301203801E89881E08CBB8F910F900FBE0F903F
S11301301F9018951F920F920FB60F9211240F93D0
S11301401F932F933F934F935F936F937F938F935B
S11301509F93AF93BF93CF93DF93EF93FF938091DC
S113016024018B30E0F1909137019937C1F5E1EC2E
S1130170F0E080818F778083ECE7F0E08081877FF7
S1130180808387E291E00E94900287E291E00E94DE
S11301901803809122019091230105973CF081E09E
S11301A08CBB8DBB109223011092220180912201FD
S11301B090912301019690932301809322018EE66E
S11301C08093370110922401ECE7F0E0808188608D
S11301D08083E1ECF0E080818068808322C08031FC
S11301E010F090912A018536E0F001EC10E0F8015E
S11301F080818F778083CCE7D0E08881877F888374
S113020087E291E00E949002F801808180688083F7
S113021087E291E00E94180310922401888188608B
S11302208883809124018F5F8093240185B385BBEB
S1130230FF91EF91DF91CF91BF91AF919F918F91FA
S11302407F916F915F914F913F912F911F910F91EA
S11302500F900FBE0F901F9018951F920F920FB61C
S11302600F9211242F933F934F935F936F937F9338
S11302708F939F93AF93BF93EF93FF9387E291E0A4
S11302800E94500280912B01893711F48093370129
S1130290FF91EF91BF91AF919F918F917F916F915A
S11302A05F914F913F912F910F900FBE0F901F9030
S11302B0189510922901109228018EE680932A0144
S11302C099E790932B019093370192E4909327013F
S11302D08093380108950E94590187E690E00E94B6
S11302E03D0785B5856085BD52985A9A81E0809313
S11302F069000E94B8010E9467007894FFCF95B10D
S1130300282F22952F70907F922B95B992E0382F49
S11303103F70611111C02C9825E02A95F1F7000077
S11303202D9AE5E0EA95F1F700002D98F0EFFA95A3
S1130330F1F78430B0F40FC02C9A25E02A95F1F738
S113034000002D9AE5E0EA95F1F700002D98F0EF12
S1130350FA95F1F706C0EFE3FFE13197F1F700C03A
S1130360000025B1207F232B25B9915091F60895E3
S11303708FE084B984B1806384B925E02A95F1F7CC
S113038000002C982D988FEF99EF20E08150904039
S11303902040E1F700C0000085B1807F836085B90B
S11303A085E08A95F1F700002D9A95E09A95F1F78A
S11303B000002D9820EF2A95F1F78FE19EE4019734
S11303C0F1F700C0000095E09A95F1F700002D9A2E
S11303D025E02A95F1F700002D9880EF8A95F1F732
S11303E08FE193E00197F1F700C0000095E09A9542
S11303F0F1F700002D9A25E02A95F1F700002D98D9
S113040080EF8A95F1F785B1807F826085B995E0A8
S11304109A95F1F700002D9A25E02A95F1F700004E
S11304202D9880EF8A95F1F760E088E20E947F01C1
S113043060E088E00E947F0160E081E00E947F012B
S113044060E08CE00E947F0160E080E80E947F0110
S11304500895CF93DF93EC018881882339F02196A6
S113046061E00E947F0189918111FACFDF91CF91E0
S1130470089561E00E947F0108958130910521F47F
S1130480CB0180589F4F08C0029721F4CB018054C0
S11304909F4F02C080E090E060E00E947F010895D9
S11304A0FC012091C6008EE684832A3741F489E753
S11304B08383818192810196928381832FC083817A
S11304C0893761F581819281019739F42083818193
S11304D0928101969283818321C0818192810297C6
S11304E051F4822F90E096838583818192810196D5
S11304F09283818313C081819281039779F4822F3F
S113050090E0908787838181928101969283818391
S11305108EE6838389E7848312821182848108951D
S11305200F931F93CF93DF93CDB7DEB76C970FB6BE
S1130530F894DEBF0FBECDBF8C0183E589830E9492
S11305407F058D838D81F80186878D8190E00E94DF
S1130550FE058A838A81F80185870E94EC068B83D5
S11305608B8190E0F801928781870E949B068C839F
S11305708C8190E0F8019487838782E00E94410592
S1130580A0E0B0E08E5F9140A109B1098B879C8700
S1130590AD87BE8783E00E944405AC0160E070E053
S11305A04A5F5140610971094F87588B698B7A8B77
S11305B0CE010B960E942204B801CE010B960E9434
S11305C0EB03F801838990E098878F83848990E016
S11305D09A87898789810E944A078A810E944A07EB
S11305E08B810E944A078C810E944A078F819885DB
S11305F00E944A0789859A850E944A07F8018189E1
S1130600893719F481E38E8302C080E38E838EE6FA
S1130610F801818B8E810E944A076C960FB6F8947C
S1130620DEBF0FBECDBFDF91CF911F910F91089513
S11306300F931F93CF93DF9300D01F92CDB7DEB7F4
S11306408C0163E070E082E090E00E943D02F801DA
S11306508185928543E0BE016F5F7F4F0E949403C2
S1130660CE0101960E9429026AE070E082E090E0E7
S11306700E943D02F8018385948543E0BE016F5FCB
S11306807F4F0E949403CE0101960E94290280911B
S113069000018131E0F160E070E082E090E00E94CE
S11306A03D028AE091E00E94290266E070E081E068
S11306B090E00E943D028EE091E00E94290261E0F8
S11306C070E081E090E00E943D0284E191E00E94AC
S11306D029026CE070E081E090E00E943D0289E133
S11306E091E00E9429026FE070E082E090E00E94B5
S11306F03D02F80185850E94390267E070E082E0DE
S113070090E00E943D028EE191E00E9429028091D6
S113071000018F5F809300010F900F900F90DF9185
S1130720CF911F910F9108951F93CF93DF93FC01F5
S1130730EB01242F30E021503109121613066CF41A
S113074050E060E3DE01A50FB11D6C935F5F852F60
S113075090E082179307B4F301C050E0DE01A50FC7
S1130760B11D11961C9241501FEF140F9E01240FCE
S1130770311DA9019F01ADECBCEC0E94500A969575
S1130780879596958795969587959C01220F331F9B
S1130790880F991F880F991F880F991F820F931F25
S11307A0DF01A81BB90BCD01805DDA018C939F0199
S11307B0ADECBCEC0E94500AFC01F695E795F69569
S11307C0E795F695E795309711F0412FCDCFDF915E
S11307D0CF911F9108950F931F93CF93DF938C01B3
S11307E0EB01FC01668577856C597F4F882777FD7F
S11307F08095982F0E9460082AE939E949E15FE36E
S11308000E944B090E94AE090E9432086C8BF801C9
S1130810608971896C597F4F882777FD8095982F5F
S11308200E9460082AE939E949E15FE30E944B0923
S11308300E94AE090E9432086B8BDF91CF911F9109
S11308400F9108952F923F924F925F926F927F92F1
S11308508F929F92AF92BF92CF92DF92EF92FF92CC
S11308600F931F93CF93DF93CDB7DEB72C970FB6BB
S1130870F894DEBF0FBECDBF1C01DC014D905D902E
S11308806D907C90139714962D913D914D915C91B0
S113089017972D833E834F835887A3019201C30189
S11308A0B2010E94400A6B017C012D813E814F817F
S11308B05885CA01B9010E94400A6C0D7D1D8E1D28
S11308C09F1D0E9460080E94D2090E9432084B01B9
S11308D05C01C301B2010E9460086B017C01E894D1
S11308E0F7F8C501B4010E945E089B01AC01C70181
S11308F0B6010E94C5070E94520720EE3EE245E67B
S113090052E40E944B090E94320869837A838B83E4
S11309109C83F10180869186A286B38629813A81DF
S1130920358724876D817E818F8198850E94600838
S11309304B015C01E894B7F8A7019601C501B40125
S11309400E949B080E942D08882777FD8095982F88
S11309500E94600829E334EB48E45EE30E944B09FB
S11309600E942D0869877A878B879C8709851A8559
S113097049815A81BA0180E090E00E945E0823EE2A
S113098038E34EE050E40E944B0920E030E048ECAC
S113099052E40E9460070E942D08882777FD809505
S11309A0982F0E9460082AE037ED43E25CE30E943E
S11309B04B0969837A838B839C83A7019601C501C4
S11309C0B4010E9460079B01AC015F7769817A8161
S11309D08B819C810E944B090E942D08882777FDFA
S11309E08095982F0E94600829E334EB48E45EE385
S11309F00E944B090E942D08AB0177203CF08D81A9
S1130A009E81AF81B885BB23D4F40AC02D813E8179
S1130A104F815885552374F449855A85062F172F1D
S1130A2022273327241B350B44275527401B510B02
S1130A30890105C039852A858B01432F522FD101A5
S1130A4051961C930E9350971F965C934E931E974A
S1130A502C960FB6F894DEBF0FBECDBFDF91CF91B9
S1130A601F910F91FF90EF90DF90CF90BF90AF90C8
S1130A709F908F907F906F905F904F903F902F90BA
S1130A8008950E94740008950E9474000895CF93FD
S1130A90C82F0E9474002091080130910901821727
S1130AA0930770F08C2F0E94740041E0209106019E
S1130AB0309107012817390708F440E0842F01C05A
S1130AC080E0CF910895CF93C82F0E9474002091A5
S1130AD00401309105018217930770F08C2F0E9456
S1130AE0740041E020910201309103012817390775
S1130AF008F440E0842F01C080E0CF9108950F9363
S1130B001F93CF93DF9380E00E9474008C0181E0F7
S1130B100E947400EC0180910201909103018C17F2
S1130B209D0728F480E00E944705811151C08091FF
S1130B300601909107018017910768F480910201E2
S1130B40909103018C179D0708F444C081E00E9432
S1130B506305811141C08091080190910901081732
S1130B60190760F480910201909103018C179D078D
S1130B70A8F181E00E946305811132C080910401D3
S1130B8090910501C817D90728F480E00E94470511
S1130B90811128C080910601909107018017910767
S1130BA038F48091040190910501C817D907E0F049
S1130BB0809108019091090108171907B8F48091F0
S1130BC0040190910501C817D90790F080E511C080
S1130BD086E40FC084E40DC084E40BC085E409C03E
S1130BE085E407C084E505C082E503C080E501C053
S1130BF08CE4DF91CF911F910F9108950E947F059E
S1130C00909101019230C1F0953011F1913059F574
S1130C109CEB980F933028F482E08093010186E4E2
S1130C200895843521F0823511F08C34F1F485E097
S1130C308093010184E50895843529F08C3419F0FA
S1130C408D7F8035A1F481E08093010180E50895D2
S1130C509CEB980F933010F0803559F481E0809329
S1130C60010180E5089580E5089580E5089586E40E
S1130C70089584E50895909126019F3050F09817C7
S1130C8018F485E0890F0895891720F48BEF890FF4
S1130C9008958FE00895909125019F3050F09817A2
S1130CA018F485E0890F0895891720F48BEF890FD4
S1130CB008958FE008959C012C523140293542E07B
S1130CC0340788F42A5531092238314070F4805EA3
S1130CD091408B3A910558F481E00E946305882382
S1130CE041F080E0089584E608958BE4089582E35A
S1130CF0089589E108959C012C523140293542E040
S1130D00340788F42A5531092238314070F4805E62
S1130D1091408B3A910558F480E00E94470588235E
S1130D2041F080E0089584E608958BE4089582E319
S1130D30089589E108950F931F93CF93DF9380E083
S1130D400E9474008C0181E00E947400EC010E94F6
S1130D507F05863469F028F4843401F18534B1F0D8
S1130D6031C08235D9F0843519F08C3459F50EC070
S1130D70809125018B3430F4CE010E945B060E94E1
S1130D804B0623C0CE010E945B061FC08091250143
S1130D908B34D0F484E60E944B0617C08091250161
S1130DA08B3448F4C8010E947B0694E6981B892F73
S1130DB00E944B060AC0C8010E947B0694E6981B59
S1130DC0892F03C080E001C084E680932501DF9170
S1130DD0CF911F910F9108950F931F93CF93DF939A
S1130DE080E00E9474008C0181E00E947400EC0198
S1130DF00E947F05863469F028F48434C1F0853478
S1130E00F1F031C0823599F0843519F08C3459F5FC
S1130E1016C0809126018B3430F4CE010E945B060B
S1130E200E943B0623C0CE010E945B061FC0809136
S1130E3026018B34D0F484E60E943B0617C08091CF
S1130E4026018B3448F4C8010E947B0694E6981B63
S1130E50892F0E943B060AC0C8010E947B0694E6C3
S1130E60981B892F03C080E001C084E6809326018B
S1130E70DF91CF911F910F9108959093C5008093B6
S1130E80C4001092C00088E98093C10086E080937A
S1130E90C2000895E0ECF0E0908195FFFDCF8093CF
S1130EA0C60008959F939F7765D10F9000203AF470
S1130EB09058A2EA2AED3FE049E450E413D0B1C1CE
S1130EC05058BB27AA270ED0ACC19DD130F0A2D177
S1130ED020F031F49F3F11F41EF46DC10EF4E0953F
S1130EE0E7FB63C1E92FAED180F3BA17620773073A
S1130EF08407950718F071F49EF5C6C10EF4E095C9
S1130F000B2EBA2FA02D0B01B90190010C01CA01BF
S1130F10A0011124FF27591B99F0593F50F4503E6A
S1130F2068F11A16F040A22F232F342F4427585F5C
S1130F30F3CF469537952795A795F0405395C9F774
S1130F407EF41F16BA0B620B730B840BBAF091502C
S1130F50A1F0FF0FBB1F661F771F881FC2F70EC0CB
S1130F60BA0F621F731F841F48F48795779567959E
S1130F70B795F7959E3F08F0B3CF9395880F08F087
S1130F809927EE0F9795879508950CD04AC142D1C1
S1130F9040F039D130F021F45F3F19F006C151110E
S1130FA074C109C14FD198F39923C9F35523B1F3FF
S1130FB0951B550BBB27AA2762177307840738F0C4
S1130FC09F5F5F4F220F331F441FAA1FA9F333D023
S1130FD00E2E3AF0E0E830D091505040E695001CD7
S1130FE0CAF729D0FE2F27D0660F771F881FBB1F93
S1130FF0261737074807AB07B0E809F0BB0B802D6D
S1131000BF01FF2793585F4F2AF09E3F510568F0B8
S1131010CCC03BC15F3FECF3983EDCF386957795FB
S11310206795B795F7959F5FC9F7880F911D9695BA
S1131030879597F90895E1E0660F771F881FBB1F16
S1131040621773078407BA0720F0621B730B840BC3
S1131050BA0BEE1F88F7E095089504D06894B11197
S113106014C10895F7D088F09F5790F0B92F9927AD
S1131070B751A0F0D1F0660F771F881F991F1AF09F
S1131080BA95C9F712C0B13081F0FED0B1E008952D
S1131090FBC0672F782F8827B85F39F0B93FCCF3AE
S11310A0869577956795B395D9F73EF49095809595
S11310B0709561957F4F8F4F9F4F0895E89409C0B5
S11310C097FB3EF490958095709561957F4F8F4F77
S11310D09F4F9923A9F0F92F96E9BB279395F6958D
S11310E0879577956795B795F111F8CFFAF4BB0F0B
S11310F011F460FF1BC06F5F7F4F8F4F9F4F16C06F
S1131100882311F096E911C0772321F09EE8872FF8
S1131110762F05C0662371F096E8862F70E060E0B4
S11311202AF09A95660F771F881FDAF7880F96952D
S1131130879597F90895990FBB0B550FAA0BE0E813
S1131140FEEF16161706E807F90770F012161306D5
S1131150E407F50760F0BA173CF049F46217730727
S113116084079507A7951BF4B901CA01BA2FB69550
S113117097950895DF93CF931F930F938B01EC0101
S1131180E8E6F0E01BD04DD09801AE018B01EC01F4
S113119060E070E080E89FE393DE04D19801AE0143
S11311A00F911F91CF91DF9182C097F99F6780E8DB
S11311B070E060E008959FEF80EC0895DF93CF9393
S11311C01F930F93FF92EF92DF927B018C0168943F
S11311D005C0DA2EEF016BD0FE01E894A5912591AC
S11311E0359145915591AEF3EF017CDEFE019701F7
S11311F0A801DA9479F7DF90EF90FF900F911F9197
S1131200CF91DF91089500240A9416161706180644
S11312100906089500240A941216130614060506F6
S11312200895092E0394000C11F4882352F0BB0F87
S113123040F4BF2B11F460FF04C06F5F7F4F8F4FEA
S11312409F4F089557FD9058440F551F59F05F3F25
S113125071F04795880F97FB991F61F09F3F79F0D4
S113126087950895121613061406551FF2CF469556
S1131270F1DF08C0161617061806991FF1CF8695D8
S11312807105610508940895E894BB2766277727BC
S1131290CB0197F908950BD0C4CFB5DF28F0BADF9E
S11312A018F0952309F081CF86CF1124EECFCADF41
S11312B0A0F3959FD1F3950F50E0551F629FF00165
S11312C0729FBB27F00DB11D639FAA27F00DB11DBE
S11312D0AA1F649F6627B00DA11D661F829F222747
S11312E0B00DA11D621F739FB00DA11D621F839FCE
S11312F0A00D611D221F749F3327A00D611D231FA4
S1131300849F600D211D822F762F6A2F11249F57F1
S113131050408AF0E1F088234AF0EE0FFF1FBB1F14
S1131320661F771F881F91505040A9F79E3F5105B3
S113133070F03BCFAACF5F3FECF3983EDCF3869589
S113134077956795B795F795E7959F5FC1F7FE2B5E
S1131350880F911D9695879597F908957BDFE0F0A6
S11313609E37D8F09639B8F49E3848F4672F782F12
S11313708827985FF9CF86957795679593959539E2
S1131380D0F3B62FB1706B0F711D811D20F48795BA
S113139077956795939544C05EC077CF11F40EF4AA
S11313A00ACF59C057DFD0F39923D9F3CEF39F570F
S11313B0550B87FF5ED00024A0E640EA90018058D8
S11313C05695979528F4805C660F771F881F20F048
S11313D026173707480730F4621B730B840B202948
S11313E031294A2BA69517940794202531254A279D
S11313F058F7660F771F881F20F02617370748070E
S113140030F4620B730B840B200D311D411DA0952C
S113141081F7B901842F9158880F9695879508957F
S1131420882371F4772321F09850872B762F07C0F7
S1131430662311F499270DC09051862B70E060E06B
S11314402AF09A95660F771F881FDAF7880F96950A
S1131450879597F908959F3F31F0915020F487952F
S113146077956795B795880F911D9695879597F908
S1131470089591505040660F771F881FD2F7089542
S1131480DB018F939F930E945F0ABF91AF91A29F4C
S1131490800D911DA39F900DB29F900D112408956E
S11314A0A29FB001B39FC001A39F700D811D1124A1
S11314B0911DB29F700D811D1124911D08950E94EC
S11314C0500AA59F900DB49F900DA49F800D911D6F
S10B14D011240895F894FFCFE4
S11314D814010602DE011E02F6014D313A004441B0
S11314E8454C4E00494653430032303134004D32A6
S10514F83A00B4
S9030000FC
