:100000000C9434000C9474000C9451000C94510026
:100010000C9451000C9451000C9451000C9451001C
:100020000C9451000C9451000C9451000C9451000C
:100030000C9451000C9451000C9451000C945100FC
:100040000C9451000C9451000C9419010C94510023
:100050000C9451000C9486000C9451000C945100A7
:100060000C9451000C94510011241FBECFEFD8E026
:10007000DEBFCDBF11E0A0E0B1E0ECE5FBE002C0E7
:1000800005900D92A232B107D9F721E0A2E2B1E0CA
:1000900001C01D92AA33B207E1F70E9457010C94E8
:1000A000AC050C94000080E480937C008FEA809380
:1000B0007A0084E080937B008FE380937E00089534
:1000C000ECE7F0E090818770987F982B9083EAE7C7
:1000D000F0E0808180648083808186FDFDCF809107
:1000E00078009091790008951F920F920FB60F92A9
:1000F00011248F9389E780933801E89881E08CBBC5
:100100008F910F900FBE0F901F9018951F920F9216
:100110000FB60F9211240F931F932F933F934F937A
:100120005F936F937F938F939F93AF93BF93CF937F
:10013000DF93EF93FF93809124018B30E0F1909156
:1001400037019937C1F5E1ECF0E080818F7780834A
:10015000ECE7F0E08081877F808387E291E00E9476
:100160007B0287E291E00E94CB0280912201909174
:10017000230105973CF081E08CBB8DBB10922301DD
:100180001092220180912201909123010196909377
:100190002301809322018EE680933701109224017F
:1001A000ECE7F0E0808188608083E1ECF0E0808122
:1001B0008068808322C0803110F090912A018536BA
:1001C000E0F001EC10E0F80180818F778083CCE7CC
:1001D000D0E08881877F888387E291E00E947B025C
:1001E000F80180818068808387E291E00E94CB02E1
:1001F00010922401888188608883809124018F5F18
:100200008093240185B385BBFF91EF91DF91CF915E
:10021000BF91AF919F918F917F916F915F914F911E
:100220003F912F911F910F910F900FBE0F901F9034
:1002300018951F920F920FB60F9211242F933F9390
:100240004F935F936F937F938F939F93AF93BF93DE
:10025000EF93FF9387E291E00E943B0280912B0194
:10026000893711F480933701FF91EF91BF91AF91DE
:100270009F918F917F916F915F914F913F912F91BE
:100280000F900FBE0F901F90189510922901109299
:1002900028018EE680932A0199E790932B01909391
:1002A000370192E4909327018093380108950E94CA
:1002B000450187E690E00E94880585E085BD52985B
:1002C0005A9A81E0809369000E94A3010E94530022
:1002D0007894FFCF95B1282F22952F70907F922B85
:1002E00095B992E0382F3F70611111C02C9825E02C
:1002F0002A95F1F700002D9AE5E0EA95F1F7000064
:100300002D98F0EFFA95F1F78430B0F40FC02C9AE5
:1003100025E02A95F1F700002D9AE5E0EA95F1F73E
:1003200000002D98F0EFFA95F1F706C0EFE3FFE13A
:100330003197F1F700C0000025B1207F232B25B9AC
:10034000915091F608958FE084B984B1806384B9A7
:1003500025E02A95F1F700002C982D988FEF99EF62
:1003600020E0815090402040E1F700C0000085B1BE
:10037000807F836085B985E08A95F1F700002D9A2A
:1003800095E09A95F1F700002D9820EF2A95F1F766
:100390008FE19EE40197F1F700C0000095E09A9587
:1003A000F1F700002D9A25E02A95F1F700002D982D
:1003B00080EF8A95F1F78FE193E00197F1F700C0A4
:1003C000000095E09A95F1F700002D9A25E02A9516
:1003D000F1F700002D9880EF8A95F1F785B1807FC5
:1003E000826085B995E09A95F1F700002D9A25E095
:1003F0002A95F1F700002D9880EF8A95F1F760E0DB
:1004000088E20E946A0160E088E00E946A0160E080
:1004100081E00E946A0160E08CE00E946A0160E075
:1004200080E80E946A010895CF93DF93EC018881F0
:10043000882339F0219661E00E946A018991811137
:10044000FACFDF91CF91089561E00E946A0108958B
:100450008130910521F4CB0180589F4F08C002974D
:1004600021F4CB0180549F4F02C080E090E060E017
:100470000E946A010895FC012091C6008EE68483E3
:100480002A3741F489E7838381819281019692839F
:1004900081832FC08381893761F5818192810197A2
:1004A00039F420838181928101969283818321C0D6
:1004B00081819281029751F4822F90E09683858307
:1004C0008181928101969283818313C0818192817F
:1004D000039779F4822F90E09087878381819281BE
:1004E0000196928381838EE6838389E784831282D7
:1004F0001182848108950F931F93CF93DF9300D0CF
:1005000000D000D0CDB7DEB78C0183E589830E948F
:10051000D6038D838D81F80186878D8190E00E94BE
:100520004F048A838A81F80185870E9439058B836D
:100530008B8190E0F801928781870E94EA048C8386
:100540008C8190E0F8019487838789810E949505CA
:100550008A810E9495058B810E9495058C810E945D
:100560009505F8018189893719F481E38E8302C0EA
:1005700080E38E838EE6F801818B8E810E94950543
:1005800026960FB6F894DEBF0FBECDBFDF91CF9198
:100590001F910F9108950F931F93CF93DF9300D076
:1005A0001F92CDB7DEB78C0163E070E082E090E08F
:1005B0000E942802F8018185928543E0BE016F5FA9
:1005C0007F4F0E944703CE0101960E9414026AE009
:1005D00070E082E090E00E942802F8018385948513
:1005E00043E0BE016F5F7F4F0E944703CE0101963B
:1005F0000E941402809100018131E0F160E070E01E
:1006000082E090E00E9428028AE091E00E941402B9
:1006100066E070E081E090E00E9428028EE091E0C8
:100620000E94140261E070E081E090E00E942802E4
:1006300084E191E00E9414026CE070E081E090E0BF
:100640000E94280289E191E00E9414026FE070E0AC
:1006500082E090E00E942802F80185850E94240231
:1006600067E070E082E090E00E9428028EE191E075
:100670000E941402809100018F5F809300010F900F
:100680000F900F90DF91CF911F910F9108951F93BD
:10069000CF93DF93FC01EB01242F30E0215031098F
:1006A000121613066CF450E060E3DE01A50FB11DD5
:1006B0006C935F5F852F90E082179307B4F301C0BE
:1006C00050E0DE01A50FB11D11961C9241501FEFA5
:1006D000140F9E01240F311DA9019F01ADECBCEC4C
:1006E0000E949D05969587959695879596958795F1
:1006F0009C01220F331F880F991F880F991F880FA5
:10070000991F820F931FDF01A81BB90BCD01805DDC
:10071000DA018C939F01ADECBCEC0E949D05FC01BD
:10072000F695E795F695E795F695E795309711F0EC
:10073000412FCDCFDF91CF911F91089580E00E948E
:100740006000089581E00E94600008950E949E0369
:1007500020910801309109018217930768F00E94E7
:100760009E0341E0209106013091070128173907C7
:1007700008F440E0842F089580E008950E94A203C9
:1007800020910401309105018217930768F00E94BF
:10079000A20341E02091020130910301281739079B
:1007A00008F440E0842F089580E008950F931F938C
:1007B000CF93DF930E949E038C010E94A203EC0161
:1007C00080910201909103018C179D0720F40E94F3
:1007D000A60381114EC080910601909107018017F8
:1007E000910760F480910201909103018C179D079D
:1007F00008F441C00E94BE0381113FC080910801EE
:10080000909109010817190758F4809102019091FD
:1008100003018C179D0798F10E94BE03811131C01E
:100820008091040190910501C817D90720F40E9416
:10083000A603811128C080910601909107018017BD
:10084000910738F48091040190910501C817D907E8
:10085000E0F0809108019091090108171907B8F498
:100860008091040190910501C817D90790F080E5A7
:1008700011C086E40FC084E40DC084E40BC085E49D
:1008800009C085E407C084E505C082E503C080E5B2
:1008900001C08CE4DF91CF911F910F9108950E94C8
:1008A000D603909101019230C1F0953011F1913051
:1008B00059F59CEB980F933028F482E08093010166
:1008C00086E40895843521F0823511F08C34F1F4FA
:1008D00085E08093010184E50895843529F08C3406
:1008E00019F08D7F8035A1F481E08093010180E5CE
:1008F00008959CEB980F933010F0803559F481E007
:100900008093010180E5089580E5089580E50895CC
:1009100086E4089584E50895909126019F3050F073
:10092000981718F485E0890F0895891720F48BEF44
:10093000890F08958FE00895909125019F3050F020
:10094000981718F485E0890F0895891720F48BEF24
:10095000890F08958FE008959C012C52314029356C
:1009600042E0340780F42A5531092238314068F4D6
:10097000805E91408B3A910550F40E94BE0388231B
:1009800041F080E0089584E608958BE4089582E3C1
:10099000089589E108959C012C523140293542E0A7
:1009A000340780F42A5531092238314068F4805EDA
:1009B00091408B3A910550F40E94A603882341F0A0
:1009C00080E0089584E608958BE4089582E3089515
:1009D00089E108950F931F93CF93DF930E949E03A5
:1009E0008C010E94A203EC010E94D603863469F0B8
:1009F00028F4843401F18534B1F031C08235D9F066
:100A0000843519F08C3459F50EC0809125018B3452
:100A100030F4CE010E94AC040E949C0423C0CE019D
:100A20000E94AC041FC0809125018B34D0F484E671
:100A30000E949C0417C0809125018B3448F4C801A2
:100A40000E94CB0494E6981B892F0E949C040AC044
:100A5000C8010E94CB0494E6981B892F03C080E054
:100A600001C084E680932501DF91CF911F910F9102
:100A700008950F931F93CF93DF930E949E038C01E1
:100A80000E94A203EC010E94D603863469F028F488
:100A90008434C1F08534F1F031C0823599F0843569
:100AA00019F08C3459F516C0809126018B3430F43E
:100AB000CE010E94AC040E948C0423C0CE010E948F
:100AC000AC041FC0809126018B34D0F484E60E94D0
:100AD0008C0417C0809126018B3448F4C8010E9411
:100AE000CB0494E6981B892F0E948C040AC0C8018D
:100AF0000E94CB0494E6981B892F03C080E001C0BC
:100B000084E680932601DF91CF911F910F91089584
:100B10009093C5008093C4001092C00088E9809330
:100B2000C10086E08093C2000895E0ECF0E090817F
:100B300095FFFDCF8093C6000895A29FB001B39F9B
:100B4000C001A39F700D811D1124911DB29F700DD6
:0C0B5000811D1124911D0895F894FFCF21
:100B5C0014010602DE011E02F6014D313A00444139
:100B6C00454C4E00494653430032303134004D322F
:020B7C003A003D
:00000001FF
