:100000000C9434000C9476000C9451000C94510024
:100010000C9451000C9451000C9451000C9451001C
:100020000C9451000C9451000C9451000C9451000C
:100030000C9451000C9451000C9451000C945100FC
:100040000C9451000C9451000C94EB000C94510052
:100050000C9451000C9488000C9451000C945100A5
:100060000C9451000C94510011241FBECFEFD8E026
:10007000DEBFCDBF11E0A0E0B1E0E6E6FBE002C0EC
:1000800005900D92AE31B107D9F711E0AEE1B1E0C4
:1000900001C01D92A833B107E1F70E9429010C9419
:1000A000B1050C94000080E480937C008FEA80937B
:1000B0007A0084E080937B008FE380937E00089534
:1000C000ECE7F0E090818770987F982B9083EAE7C7
:1000D000F0E0808180648083808186FDFDCF209167
:1000E000780030917900822F932F08951F920F92FC
:1000F0000FB60F9211248F9389E780933201E8980D
:1001000081E08CBB8F910F900FBE0F901F901895C0
:100110001F920F920FB60F9211242F933F934F937C
:100120005F936F937F938F939F93AF93BF93CF937F
:10013000DF93EF93FF9380912001813190F18091C3
:100140003101893771F5ECE7F0E08081877F8083AA
:10015000C1E2D1E0CE010E947C02CE010E94CB021E
:1001600080911E0190911F01853091053CF081E046
:100170008CBB8DBB10921F0110921E0180911E013D
:1001800090911F01019690931F0180931E018EE6AE
:100190008093310110922001ECE7F0E080818860CB
:1001A0008083809120018F5F8093200185B385BB80
:1001B000FF91EF91DF91CF91BF91AF919F918F917F
:1001C0007F916F915F914F913F912F910F900FBE53
:1001D0000F901F9018951F920F920FB60F92112437
:1001E0002F933F934F935F936F937F938F939F933F
:1001F000AF93BF93EF93FF9381E291E00E943902A6
:1002000080912501893711F480933101FF91EF919D
:10021000BF91AF919F918F917F916F915F914F911E
:100220003F912F910F900FBE0F901F901895109235
:100230002301109222018EE68093240180932501F0
:1002400099E790933101E2E2F1E092E49293818B9D
:1002500008950E94170187E690E00E945D0585E001
:1002600085BD52985A9A81E0809369000E94750179
:100270000E9453007894FFCF95B1282F22952F70BC
:10028000907F922B95B992E0382F3F70662389F4C6
:100290002C9825E02A95F1F700002D9AE5E0EA95E3
:1002A000F1F700002D98F0EFFA95F1F78430B0F4F3
:1002B0000FC02C9A25E02A95F1F700002D9AE5E071
:1002C000EA95F1F700002D98F0EFFA95F1F706C0E6
:1002D000EFE3FFE13197F1F700C0000025B1207F87
:1002E000232B25B9915091F608958FE084B984B1FC
:1002F000806384B985E08A95F1F700002C982D98E9
:100300008FEF99EFA0E081509040A040E1F700C04E
:10031000000085B1807F836085B995E09A95F1F7FB
:1003200000002D9AA5E0AA95F1F700002D98B0EFF6
:10033000BA95F1F78FE19EE40197F1F700C0000054
:1003400095E09A95F1F700002D9AA5E0AA95F1F7AE
:1003500000002D98B0EFBA95F1F78FE193E0019787
:10036000F1F700C0000095E09A95F1F700002D9A92
:10037000A5E0AA95F1F700002D98B0EFBA95F1F736
:1003800085B1807F826085B985E08A95F1F70000AC
:100390002D9A95E09A95F1F700002D98A0EFAA9577
:1003A000F1F788E260E00E943C0188E060E00E9492
:1003B0003C0181E060E00E943C018CE060E00E9432
:1003C0003C0180E860E00E943C010895CF93DF93F8
:1003D000EC018881882339F0219661E00E943C017C
:1003E00089918823D1F7DF91CF91089561E00E9430
:1003F0003C0108958130910521F4CB0180589F4F35
:1004000009C08230910521F4CB0180549F4F02C076
:1004100080E090E060E00E943C010895EF92FF923E
:100420000F931F93CF93DF938C017B01EA012097F9
:1004300049F481E060E00E943C01C801B7010E94DC
:10044000FA0110C00E94FA011C161D065CF400E0BF
:1004500080E261E00E943C010F5F802F90E08C17EA
:100460009D07B4F3DF91CF911F910F91FF90EF9013
:100470000895FC012091C6008EE684832A3741F45A
:1004800089E783838181928101969283818332C03F
:100490008381893779F5818192818130910539F4A1
:1004A00020838181928101969283818323C08181FF
:1004B00092818230910551F4822F90E0968385835A
:1004C0008181928101969283818314C0818192817E
:1004D0008330910579F4822F90E090878783818122
:1004E00092810196928381838EE6838389E7848358
:1004F00012821182848108950F931F93DF93CF930B
:1005000000D000D000D0CDB7DEB78C0183E5898361
:100510000E94E0038D838D81F80186878D810E9482
:100520005B048A838A81F80185870E94FD048B839E
:100530008B8190E0F801928781870E942D058C8342
:100540008C8190E0F8019487838789810E946A05F5
:100550008A810E946A058B810E946A058C810E94B3
:100560006A05F8018189893719F481E38E8302C015
:1005700080E38E838EE6F801818B8E810E946A056E
:1005800026960FB6F894DEBF0FBECDBFCF91DF9198
:100590001F910F910895EF92FF920F931F93DF9396
:1005A000CF9300D00F92CDB7DEB77C0181E090E011
:1005B00063E070E00E94FA01F701818592858E0167
:1005C0000F5F1F4FB80143E00E947203C8010E94F1
:1005D000E60182E090E063E070E00E94FA01F7013A
:1005E00083859485B80143E00E947203C8010E948C
:1005F000E60180911001813108F465C081E090E04E
:1006000060E070E00E94FA0181E091E00E94E60162
:1006100081E090E067E070E00E94FA0185E091E0FF
:100620000E94E601F701858196818E010F5F1F4FC1
:10063000B80142E00E947203C8010E94E60186E50B
:100640000E94F60181E090E06DE070E00E94FA0106
:100650008BE50E94F601F70185850E94F6018DE584
:100660000E94F60182E090E060E070E00E94FA01F2
:1006700088E091E00E94E60182E090E067E070E0AF
:100680000E94FA018CE091E00E94E601F701878167
:100690009085B80142E00E947203C8010E94E60101
:1006A00086E50E94F60182E090E06DE070E00E9435
:1006B000FA0186E40E94F6018AE30E94F601F7013E
:1006C00080810E94F601809110018F5F809310015C
:1006D0000F900F900F90CF91DF911F910F91FF908E
:1006E000EF9008951F93CF93DF939B01A42FB0E069
:1006F00011971A161B066CF450E010E3F901E50F90
:10070000F11D10835F5F652F70E06A177B07B4F3FC
:1007100001C050E0F901E50FF11D11824150CAE01E
:10072000D0E0F901E40FF11DBE010E949D05805D3E
:1007300080834150862F972F009799F7DF91CF91B3
:100740001F91089580E00E946000089581E00E945A
:10075000600008950E94A2032091130130911401BA
:100760008217930778F00E94A20321E030E04091C5
:100770001501509116014817590710F420E030E098
:10078000C901089580E090E008950E94A603209199
:10079000190130911A018217930778F00E94A6037D
:1007A00021E030E040911B0150911C01481759078E
:1007B00010F420E030E0C901089580E090E0089551
:1007C0000F931F93CF93DF930E94A2038C010E948B
:1007D000A603EC0180911B0190911C018C179D07D1
:1007E00028F40E94AA03882309F04FC080911501C4
:1007F000909116018017910768F480911B019091E8
:100800001C018C179D0708F442C00E94C503882371
:1008100009F03FC080911301909114010817190746
:1008200058F480911B0190911C018C179D0798F141
:100830000E94C503882389F58091190190911A01BE
:10084000C817D90720F40E94AA03882341F5809194
:100850001501909116018017910738F480911901C4
:1008600090911A01C817D907E0F080911301909177
:10087000140108171907B8F48091190190911A0111
:10088000C817D90790F080E511C086E40FC084E452
:100890000DC084E40BC085E409C085E407C084E58D
:1008A00005C082E503C080E501C08CE4DF91CF91F3
:1008B0001F910F9108950E94E00390911D019230C5
:1008C000D1F0953029F1913081F5863421F08434CE
:1008D00011F0853429F482E080931D0186E40895A7
:1008E000843521F0823511F08C3409F585E0809350
:1008F0001D0184E50895843531F0823521F08C3472
:1009000011F08035B1F481E080931D0180E50895F8
:10091000863431F0843421F0853411F0803559F477
:1009200081E080931D0180E5089580E5089580E5CC
:10093000089586E4089584E5089523E085389207B4
:10094000D0F421E08C329207C0F023E08830920787
:10095000B0F421E086389207A0F022E08B389207AD
:1009600090F421E0803E920780F00E94C503882326
:1009700071F080E0089584E6089584E608958BE49C
:1009800008958BE4089582E3089582E3089589E150
:10099000089523E085389207D8F421E08C3292073D
:1009A000D0F023E088309207C8F421E0863892071F
:1009B000C0F022E08B389207B8F421E0803E920725
:1009C000B0F00E94AA038823A9F080E090E0089587
:1009D00084E690E0089584E690E008958BE490E04A
:1009E00008958BE490E0089582E390E0089582E317
:1009F00090E0089589E190E008950F931F93CF93BD
:100A0000DF930E94A2038C010E94A603EC010E94C6
:100A10009D040E94E003863479F0873428F48434FE
:100A2000B1F0853439F40CC0823589F0843521F079
:100A30008C3431F080E00CC0CE010E949D0408C0CF
:100A4000C8010E94C90494E6981B892F01C084E65E
:100A5000DF91CF911F910F9108950F931F93CF9323
:100A6000DF930E94A2038C010E94A603EC010E9466
:100A70009D040E94E003863479F0873428F484349E
:100A800079F0853439F413C0823551F0843521F082
:100A90008C3469F080E00CC0CE010E949D0408C037
:100AA000C8010E94C90494E6981B892F01C084E6FE
:100AB000DF91CF911F910F9108959093C50080937E
:100AC000C4001092C00088E98093C10086E0809342
:100AD000C2000895E0ECF0E0908195FFFDCF809397
:100AE000C6000895E0ECF0E080818823ECF7809167
:100AF000C6000895CF93DF93EC018881882331F0FD
:100B000021960E946A0589918823D9F7DF91CF91B8
:100B10000895CF93DF93EC01FE012491222351F03D
:100B2000FC0184910E946A052196CE01FE01249168
:100B30002223B1F7DF91CF910895AA1BBB1B51E18E
:100B400007C0AA1FBB1FA617B70710F0A61BB70B3D
:100B5000881F991F5A95A9F780959095BC01CD01E2
:060B60000895F894FFCF98
:100B6600014D313A00423A004D323A00503A000106
:0E0B7600140A02F6011E02F201DE010602015F
:00000001FF
