:100000000C9434000C9451000C9451000C94510049
:100010000C9451000C9451000C9451000C9451001C
:100020000C9451000C9451000C9451000C9451000C
:100030000C9451000C9451000C9451000C945100FC
:100040000C9451000C9451000C9451000C945100EC
:100050000C9451000C94C4010C9451000C94510068
:100060000C9451000C94510011241FBECFEFD8E026
:10007000DEBFCDBF11E0A0E0B1E0ECE4F7E002C0EC
:1000800005900D92AE30B107D9F711E0AEE0B1E0C6
:1000900001C01D92A431B107E1F70E947F010C94C9
:1000A000A4030C94000080E480937C008FEA80938A
:1000B0007A0084E080937B008FE380937E00089534
:1000C000ECE7F0E090818770987F982B9083EAE7C7
:1000D000F0E0808180648083808186FDFDCF209167
:1000E000780030917900822F932F089595B1282FB1
:1000F00022952F70907F922B95B992E0382F3F7008
:10010000662389F42C9825E02A95F1F700002D9AB2
:10011000E5E0EA95F1F700002D98F0EFFA95F1F798
:100120008430B0F40FC02C9A25E02A95F1F7000036
:100130002D9AE5E0EA95F1F700002D98F0EFFA9599
:10014000F1F706C0EFE3FFE13197F1F700C00000DF
:1001500025B1207F232B25B9915091F608958FE08A
:1001600084B984B1806384B985E08A95F1F7000091
:100170002C982D988FEF99EFA0E081509040A040EF
:10018000E1F700C0000085B1807F836085B995E00C
:100190009A95F1F700002D9AA5E0AA95F1F70000D5
:1001A0002D98B0EFBA95F1F78FE19EE40197F1F742
:1001B00000C0000095E09A95F1F700002D9AA5E0A7
:1001C000AA95F1F700002D98B0EFBA95F1F78FE1FD
:1001D00093E00197F1F700C0000095E09A95F1F7E0
:1001E00000002D9AA5E0AA95F1F700002D98B0EF38
:1001F000BA95F1F785B1807F826085B985E08A95EF
:10020000F1F700002D9A95E09A95F1F700002D98EE
:10021000A0EFAA95F1F788E260E00E94760088E0FE
:1002200060E00E94760081E060E00E9476008CE051
:1002300060E00E94760080E860E00E947600089509
:10024000CF93DF93EC018881882339F0219661E018
:100250000E94760089918823D1F7DF91CF9108958C
:1002600061E00E94760008958130910521F4CB0170
:1002700080589F4F09C08230910521F4CB018054F2
:100280009F4F02C080E090E060E00E9476000895F9
:10029000EF92FF920F931F93CF93DF938C017B011B
:1002A000EA01209749F481E060E00E947600C801ED
:1002B000B7010E94340110C00E9434011C161D06B3
:1002C0005CF400E080E261E00E9476000F5F802F26
:1002D00090E08C179D07B4F3DF91CF911F910F91A0
:1002E000FF90EF90089587E690E00E94500385E02C
:1002F00085BD0E94AF000E945300789408950E942B
:100300007301FFCFCF92DF92FF920F931F93DF9382
:10031000CF9300D000D00F92CDB7DEB78C016B0128
:10032000F42E81E090E061E070E00E9434018BE502
:100330000E9430018F2D0E9430018DE50E94300116
:100340008BE50E943001C8018E010F5F1F4FB8017D
:100350000E942702C8010E942001C601B8010E9424
:100360002702C8010E9420018DE50E9430010F90F4
:100370000F900F900F900F90CF91DF911F910F91E1
:10038000FF90DF90CF9008951F920F920FB60F92BB
:100390001124FF920F931F932F933F934F935F93DB
:1003A0006F937F938F939F93AF93BF93EF93FF933D
:1003B00080910E018032B9F40E942503F82E0E942C
:1003C0003C03082F0E948102182F8F2D602F412F90
:1003D0000E940E028F2D90E0602F70E0412F0E944E
:1003E000820110920E0180910E018F5F80930E01A9
:1003F00085B385BBFF91EF91BF91AF919F918F9195
:100400007F916F915F914F913F912F911F910F912C
:10041000FF900F900FBE0F901F901895DF93CF9312
:1004200000D000D00F92CDB7DEB793E599834A8311
:100430008B836C831D82CE0101960E946D030F9009
:100440000F900F900F900F90CF91DF910895CF9361
:10045000DF93EB0120E3288329832A832B831C82EB
:1004600043E02AE030E0FE01E40FF11DB9010E94F3
:100470009003805D80834150862F972F009799F7D6
:10048000DF91CF91089580E00E946000089581E09F
:100490000E94600008950E94430220910301309160
:1004A00004018217930778F00E94430221E030E0B4
:1004B00040910501509106014817590710F420E0BA
:1004C00030E0C901089580E090E008950E9447025D
:1004D0002091090130910A018217930778F00E9458
:1004E000470221E030E040910B0150910C01481788
:1004F000590710F420E030E0C901089580E090E051
:1005000008950F931F93CF93DF930E9443028C01B2
:100510000E944702EC0180910B0190910C018C1715
:100520009D0728F40E944B02882309F04FC0809158
:100530000501909106018017910768F480910B01E5
:1005400090910C018C179D0708F442C00E9466022E
:10055000882309F03FC0809103019091040108179E
:10056000190758F480910B0190910C018C179D078D
:1005700098F10E946602882389F580910901909183
:100580000A01C817D90720F40E944B02882341F5BD
:1005900080910501909106018017910738F48091B0
:1005A000090190910A01C817D907E0F08091030171
:1005B0009091040108171907B8F4809109019091EE
:1005C0000A01C817D90790F080E511C086E40FC072
:1005D00084E40DC084E40BC085E409C085E407C051
:1005E00084E505C082E503C080E501C08CE4DF91AD
:1005F000CF911F910F9108950E94470223E0853803
:100600009207A8F40E94470223E08830920790F4F2
:100610000E94470222E08B38920778F40E9447023A
:1006200022E08B30920760F029E130E00BC024E635
:1006300030E008C02BE430E005C022E330E002C027
:1006400020E030E0822F932F08950E9443020E9401
:1006500047020E94FC020E948102863459F08734CE
:1006600018F4843429F406C0823521F0843511F061
:1006700080E0089584E608950E9443020E944702A4
:100680000E94FC020E948102853430F0873430F0F1
:100690008C3421F0843511F080E0089584E60895CB
:1006A0009093C5008093C4001092C00088E98093A5
:1006B000C10086E08093C2000895E0ECF0E09081F4
:1006C00095FFFDCF8093C6000895E0ECF0E08081B7
:1006D0008823ECF78091C6000895CF93DF93EC0157
:1006E0008881882331F021960E945D0389918823B7
:1006F000D9F7DF91CF910895CF93DF93EC01FE01FD
:100700002491222351F0FC0184910E945D032196E3
:10071000CE01FE0124912223B1F7DF91CF910895FC
:10072000AA1BBB1B51E107C0AA1FBB1FA617B70717
:1007300010F0A61BB70B881F991F5A95A9F7809533
:0C0740009095BC01CD010895F894FFCF06
:0E074C00010A02F6011E02F201DE01060200A1
:00000001FF
